{
  "contractName": "FlightSuretyData",
  "abi": [
    {
      "constant": true,
      "inputs": [
        {
          "name": "",
          "type": "uint256"
        }
      ],
      "name": "insurances",
      "outputs": [
        {
          "name": "id",
          "type": "uint256"
        },
        {
          "name": "airline",
          "type": "address"
        },
        {
          "name": "flightKey",
          "type": "bytes32"
        },
        {
          "name": "insuree",
          "type": "address"
        },
        {
          "name": "amount",
          "type": "uint256"
        },
        {
          "name": "state",
          "type": "uint256"
        }
      ],
      "payable": false,
      "stateMutability": "view",
      "type": "function",
      "signature": "0x59fb49f9"
    },
    {
      "constant": true,
      "inputs": [],
      "name": "AIRLINE_REGISTRATION_FEE",
      "outputs": [
        {
          "name": "",
          "type": "uint256"
        }
      ],
      "payable": false,
      "stateMutability": "view",
      "type": "function",
      "signature": "0xd8f73ca5"
    },
    {
      "inputs": [
        {
          "name": "initialAirline",
          "type": "address"
        }
      ],
      "payable": false,
      "stateMutability": "nonpayable",
      "type": "constructor",
      "signature": "constructor"
    },
    {
      "payable": true,
      "stateMutability": "payable",
      "type": "fallback"
    },
    {
      "constant": true,
      "inputs": [],
      "name": "isOperational",
      "outputs": [
        {
          "name": "",
          "type": "bool"
        }
      ],
      "payable": false,
      "stateMutability": "view",
      "type": "function",
      "signature": "0xcd905dff"
    },
    {
      "constant": false,
      "inputs": [
        {
          "name": "mode",
          "type": "bool"
        }
      ],
      "name": "setOperatingStatus",
      "outputs": [],
      "payable": false,
      "stateMutability": "nonpayable",
      "type": "function",
      "signature": "0x110466ed"
    },
    {
      "constant": false,
      "inputs": [
        {
          "name": "airline",
          "type": "address"
        },
        {
          "name": "flightCode",
          "type": "string"
        },
        {
          "name": "timestamp",
          "type": "uint256"
        }
      ],
      "name": "registerFlight",
      "outputs": [
        {
          "name": "success",
          "type": "bool"
        }
      ],
      "payable": false,
      "stateMutability": "nonpayable",
      "type": "function",
      "signature": "0x3cc0be9c"
    },
    {
      "constant": false,
      "inputs": [
        {
          "name": "airline",
          "type": "address"
        },
        {
          "name": "voter",
          "type": "address"
        }
      ],
      "name": "registerAirline",
      "outputs": [
        {
          "name": "votes",
          "type": "uint256"
        }
      ],
      "payable": false,
      "stateMutability": "nonpayable",
      "type": "function",
      "signature": "0xc7ba5018"
    },
    {
      "constant": false,
      "inputs": [
        {
          "name": "airline",
          "type": "address"
        },
        {
          "name": "flightCode",
          "type": "string"
        },
        {
          "name": "timestamp",
          "type": "uint256"
        },
        {
          "name": "insuree",
          "type": "address"
        }
      ],
      "name": "buy",
      "outputs": [
        {
          "name": "success",
          "type": "bool"
        }
      ],
      "payable": true,
      "stateMutability": "payable",
      "type": "function",
      "signature": "0x4f253f6e"
    },
    {
      "constant": false,
      "inputs": [
        {
          "name": "airline",
          "type": "address"
        },
        {
          "name": "flightCode",
          "type": "string"
        },
        {
          "name": "timestamp",
          "type": "uint256"
        },
        {
          "name": "statusCode",
          "type": "uint8"
        }
      ],
      "name": "creditInsurees",
      "outputs": [
        {
          "name": "success",
          "type": "bool"
        }
      ],
      "payable": false,
      "stateMutability": "nonpayable",
      "type": "function",
      "signature": "0x97ee2467"
    },
    {
      "constant": true,
      "inputs": [],
      "name": "pay",
      "outputs": [],
      "payable": false,
      "stateMutability": "pure",
      "type": "function",
      "signature": "0x1b9265b8"
    },
    {
      "constant": false,
      "inputs": [
        {
          "name": "airline",
          "type": "address"
        }
      ],
      "name": "fund",
      "outputs": [],
      "payable": true,
      "stateMutability": "payable",
      "type": "function",
      "signature": "0x23024408"
    },
    {
      "constant": true,
      "inputs": [
        {
          "name": "airline",
          "type": "address"
        },
        {
          "name": "flightCode",
          "type": "string"
        },
        {
          "name": "timestamp",
          "type": "uint256"
        }
      ],
      "name": "isFlightRegistered",
      "outputs": [
        {
          "name": "result",
          "type": "bool"
        }
      ],
      "payable": false,
      "stateMutability": "view",
      "type": "function",
      "signature": "0x241a53cb"
    },
    {
      "constant": true,
      "inputs": [
        {
          "name": "airline",
          "type": "address"
        }
      ],
      "name": "isAirlineRegistered",
      "outputs": [
        {
          "name": "result",
          "type": "bool"
        }
      ],
      "payable": false,
      "stateMutability": "view",
      "type": "function",
      "signature": "0x010c5c97"
    },
    {
      "constant": true,
      "inputs": [
        {
          "name": "airline",
          "type": "address"
        }
      ],
      "name": "isAirlineFunded",
      "outputs": [
        {
          "name": "result",
          "type": "bool"
        }
      ],
      "payable": false,
      "stateMutability": "view",
      "type": "function",
      "signature": "0xf53b6d65"
    },
    {
      "constant": true,
      "inputs": [],
      "name": "getTotalRegisteredAirlines",
      "outputs": [
        {
          "name": "result",
          "type": "uint256"
        }
      ],
      "payable": false,
      "stateMutability": "view",
      "type": "function",
      "signature": "0x994de453"
    },
    {
      "constant": true,
      "inputs": [],
      "name": "getTotalRegisteredFlights",
      "outputs": [
        {
          "name": "result",
          "type": "uint256"
        }
      ],
      "payable": false,
      "stateMutability": "view",
      "type": "function",
      "signature": "0xba1befa8"
    },
    {
      "constant": true,
      "inputs": [
        {
          "name": "airline",
          "type": "address"
        }
      ],
      "name": "getVoters",
      "outputs": [
        {
          "name": "result",
          "type": "address[]"
        }
      ],
      "payable": false,
      "stateMutability": "view",
      "type": "function",
      "signature": "0x2d15cc04"
    },
    {
      "constant": true,
      "inputs": [
        {
          "name": "airline",
          "type": "address"
        },
        {
          "name": "flightCode",
          "type": "string"
        },
        {
          "name": "insuree",
          "type": "address"
        },
        {
          "name": "amount",
          "type": "uint256"
        }
      ],
      "name": "getInsuranceState",
      "outputs": [
        {
          "name": "",
          "type": "uint256"
        }
      ],
      "payable": false,
      "stateMutability": "view",
      "type": "function",
      "signature": "0x8c85b513"
    },
    {
      "constant": true,
      "inputs": [
        {
          "name": "insuranceID",
          "type": "uint256"
        }
      ],
      "name": "getInsuranceStateByID",
      "outputs": [
        {
          "name": "",
          "type": "uint256"
        }
      ],
      "payable": false,
      "stateMutability": "view",
      "type": "function",
      "signature": "0x43df72dc"
    },
    {
      "constant": true,
      "inputs": [
        {
          "name": "airline",
          "type": "address"
        },
        {
          "name": "flightCode",
          "type": "string"
        },
        {
          "name": "insuree",
          "type": "address"
        },
        {
          "name": "amount",
          "type": "uint256"
        }
      ],
      "name": "getInsuranceAmount",
      "outputs": [
        {
          "name": "",
          "type": "uint256"
        }
      ],
      "payable": false,
      "stateMutability": "view",
      "type": "function",
      "signature": "0x76d04520"
    },
    {
      "constant": true,
      "inputs": [],
      "name": "getInsuranceIDs",
      "outputs": [
        {
          "name": "",
          "type": "uint256[]"
        }
      ],
      "payable": false,
      "stateMutability": "view",
      "type": "function",
      "signature": "0x203bc1a5"
    },
    {
      "constant": true,
      "inputs": [
        {
          "name": "a",
          "type": "string"
        },
        {
          "name": "b",
          "type": "string"
        }
      ],
      "name": "isEqualString",
      "outputs": [
        {
          "name": "",
          "type": "bool"
        }
      ],
      "payable": false,
      "stateMutability": "view",
      "type": "function",
      "signature": "0xb27b4067"
    }
  ],
  "bytecode": "0x60806040526001600060146101000a81548160ff0219169083151502179055503480156200002c57600080fd5b5060405160208062002e1c83398101806040528101908080519060200190929190505050336000806101000a81548173ffffffffffffffffffffffffffffffffffffffff021916908373ffffffffffffffffffffffffffffffffffffffff1602179055506080604051908101604052808273ffffffffffffffffffffffffffffffffffffffff1681526020016001151581526020016000151581526020016000604051908082528060200260200182016040528015620000fb5781602001602082028038833980820191505090505b50815250600260008373ffffffffffffffffffffffffffffffffffffffff1673ffffffffffffffffffffffffffffffffffffffff16815260200190815260200160002060008201518160000160006101000a81548173ffffffffffffffffffffffffffffffffffffffff021916908373ffffffffffffffffffffffffffffffffffffffff16021790555060208201518160000160146101000a81548160ff02191690831515021790555060408201518160000160156101000a81548160ff0219169083151502179055506060820151816001019080519060200190620001e3929190620001f5565b509050506001808190555050620002ca565b82805482825590600052602060002090810192821562000271579160200282015b82811115620002705782518260006101000a81548173ffffffffffffffffffffffffffffffffffffffff021916908373ffffffffffffffffffffffffffffffffffffffff1602179055509160200191906001019062000216565b5b50905062000280919062000284565b5090565b620002c791905b80821115620002c357600081816101000a81549073ffffffffffffffffffffffffffffffffffffffff0219169055506001016200028b565b5090565b90565b612b4280620002da6000396000f30060806040526004361061011d576000357c0100000000000000000000000000000000000000000000000000000000900463ffffffff168063010c5c9714610128578063110466ed146101835780631b9265b8146101b2578063203bc1a5146101c95780632302440814610235578063241a53cb1461026b5780632d15cc04146103165780633cc0be9c146103ae57806343df72dc1461042b5780634f253f6e1461046c57806359fb49f9146104fc57806376d04520146105c05780638c85b5131461068757806397ee24671461074e578063994de453146107d8578063b27b406714610803578063ba1befa8146108ca578063c7ba5018146108f5578063cd905dff1461096c578063d8f73ca51461099b578063f53b6d65146109c6575b61012633610a21565b005b34801561013457600080fd5b50610169600480360381019080803573ffffffffffffffffffffffffffffffffffffffff169060200190929190505050610c4e565b604051808215151515815260200191505060405180910390f35b34801561018f57600080fd5b506101b0600480360381019080803515159060200190929190505050610ca7565b005b3480156101be57600080fd5b506101c7610d88565b005b3480156101d557600080fd5b506101de610d8a565b6040518080602001828103825283818151815260200191508051906020019060200280838360005b83811015610221578082015181840152602081019050610206565b505050509050019250505060405180910390f35b610269600480360381019080803573ffffffffffffffffffffffffffffffffffffffff169060200190929190505050610a21565b005b34801561027757600080fd5b506102fc600480360381019080803573ffffffffffffffffffffffffffffffffffffffff169060200190929190803590602001908201803590602001908080601f016020809104026020016040519081016040528093929190818152602001838380828437820191505050505050919291929080359060200190929190505050610de2565b604051808215151515815260200191505060405180910390f35b34801561032257600080fd5b50610357600480360381019080803573ffffffffffffffffffffffffffffffffffffffff169060200190929190505050610e28565b6040518080602001828103825283818151815260200191508051906020019060200280838360005b8381101561039a57808201518184015260208101905061037f565b505050509050019250505060405180910390f35b3480156103ba57600080fd5b50610411600480360381019080803573ffffffffffffffffffffffffffffffffffffffff16906020019092919080359060200190820180359060200191909192939192939080359060200190929190505050610ef8565b604051808215151515815260200191505060405180910390f35b34801561043757600080fd5b5061045660048036038101908080359060200190929190505050611279565b6040518082815260200191505060405180910390f35b6104e2600480360381019080803573ffffffffffffffffffffffffffffffffffffffff16906020019092919080359060200190820180359060200191909192939192939080359060200190929190803573ffffffffffffffffffffffffffffffffffffffff169060200190929190505050611299565b604051808215151515815260200191505060405180910390f35b34801561050857600080fd5b50610527600480360381019080803590602001909291905050506116fc565b604051808781526020018673ffffffffffffffffffffffffffffffffffffffff1673ffffffffffffffffffffffffffffffffffffffff16815260200185600019166000191681526020018473ffffffffffffffffffffffffffffffffffffffff1673ffffffffffffffffffffffffffffffffffffffff168152602001838152602001828152602001965050505050505060405180910390f35b3480156105cc57600080fd5b50610671600480360381019080803573ffffffffffffffffffffffffffffffffffffffff169060200190929190803590602001908201803590602001908080601f0160208091040260200160405190810160405280939291908181526020018383808284378201915050505050509192919290803573ffffffffffffffffffffffffffffffffffffffff16906020019092919080359060200190929190505050611778565b6040518082815260200191505060405180910390f35b34801561069357600080fd5b50610738600480360381019080803573ffffffffffffffffffffffffffffffffffffffff169060200190929190803590602001908201803590602001908080601f0160208091040260200160405190810160405280939291908181526020018383808284378201915050505050509192919290803573ffffffffffffffffffffffffffffffffffffffff169060200190929190803590602001909291905050506119b8565b6040518082815260200191505060405180910390f35b34801561075a57600080fd5b506107be600480360381019080803573ffffffffffffffffffffffffffffffffffffffff16906020019092919080359060200190820180359060200191909192939192939080359060200190929190803560ff169060200190929190505050611bf8565b604051808215151515815260200191505060405180910390f35b3480156107e457600080fd5b506107ed611e87565b6040518082815260200191505060405180910390f35b34801561080f57600080fd5b506108b0600480360381019080803590602001908201803590602001908080601f0160208091040260200160405190810160405280939291908181526020018383808284378201915050505050509192919290803590602001908201803590602001908080601f0160208091040260200160405190810160405280939291908181526020018383808284378201915050505050509192919290505050611e91565b604051808215151515815260200191505060405180910390f35b3480156108d657600080fd5b506108df611f6a565b6040518082815260200191505060405180910390f35b34801561090157600080fd5b50610956600480360381019080803573ffffffffffffffffffffffffffffffffffffffff169060200190929190803573ffffffffffffffffffffffffffffffffffffffff169060200190929190505050611f74565b6040518082815260200191505060405180910390f35b34801561097857600080fd5b50610981612786565b604051808215151515815260200191505060405180910390f35b3480156109a757600080fd5b506109b061279c565b6040518082815260200191505060405180910390f35b3480156109d257600080fd5b50610a07600480360381019080803573ffffffffffffffffffffffffffffffffffffffff1690602001909291905050506127a8565b604051808215151515815260200191505060405180910390f35b600060149054906101000a900460ff161515610acb576040517f08c379a00000000000000000000000000000000000000000000000000000000081526004018080602001828103825260258152602001807f436f6e74726163742069732063757272656e746c79206e6f74206f706572617481526020017f696f6e616c00000000000000000000000000000000000000000000000000000081525060400191505060405180910390fd5b80610ad581610c4e565b1515610b6f576040517f08c379a00000000000000000000000000000000000000000000000000000000081526004018080602001828103825260268152602001807f566f746572206e6f742066726f6d2072656769737465726564206169726c696e81526020017f6520283c3429000000000000000000000000000000000000000000000000000081525060400191505060405180910390fd5b678ac7230489e800003410151515610bef576040517f08c379a00000000000000000000000000000000000000000000000000000000081526004018080602001828103825260138152602001807f4e6f742073756666696369656e742066756e640000000000000000000000000081525060200191505060405180910390fd5b6001600260008473ffffffffffffffffffffffffffffffffffffffff1673ffffffffffffffffffffffffffffffffffffffff16815260200190815260200160002060000160156101000a81548160ff0219169083151502179055505050565b6000600260008373ffffffffffffffffffffffffffffffffffffffff1673ffffffffffffffffffffffffffffffffffffffff16815260200190815260200160002060000160149054906101000a900460ff169050919050565b6000809054906101000a900473ffffffffffffffffffffffffffffffffffffffff1673ffffffffffffffffffffffffffffffffffffffff163373ffffffffffffffffffffffffffffffffffffffff16141515610d6b576040517f08c379a000000000000000000000000000000000000000000000000000000000815260040180806020018281038252601c8152602001807f43616c6c6572206973206e6f7420636f6e7472616374206f776e65720000000081525060200191505060405180910390fd5b80600060146101000a81548160ff02191690831515021790555050565b565b60606007805480602002602001604051908101604052809291908181526020018280548015610dd857602002820191906000526020600020905b815481526020019060010190808311610dc4575b5050505050905090565b600080610df0858585612801565b905060046000826000191660001916815260200190815260200160002060040160009054906101000a900460ff169150509392505050565b6060600260008373ffffffffffffffffffffffffffffffffffffffff1673ffffffffffffffffffffffffffffffffffffffff168152602001908152602001600020600101805480602002602001604051908101604052809291908181526020018280548015610eec57602002820191906000526020600020905b8160009054906101000a900473ffffffffffffffffffffffffffffffffffffffff1673ffffffffffffffffffffffffffffffffffffffff1681526020019060010190808311610ea2575b50505050509050919050565b600080600060149054906101000a900460ff161515610fa5576040517f08c379a00000000000000000000000000000000000000000000000000000000081526004018080602001828103825260258152602001807f436f6e74726163742069732063757272656e746c79206e6f74206f706572617481526020017f696f6e616c00000000000000000000000000000000000000000000000000000081525060400191505060405180910390fd5b85600260008273ffffffffffffffffffffffffffffffffffffffff1673ffffffffffffffffffffffffffffffffffffffff16815260200190815260200160002060000160149054906101000a900460ff16801561104e5750600260008273ffffffffffffffffffffffffffffffffffffffff1673ffffffffffffffffffffffffffffffffffffffff16815260200190815260200160002060000160159054906101000a900460ff165b15156110e8576040517f08c379a000000000000000000000000000000000000000000000000000000000815260040180806020018281038252602b8152602001807f6169726c696e65206973206e6f74207265676973746572206f722066756c6c7981526020017f2066756e6465642079657400000000000000000000000000000000000000000081525060400191505060405180910390fd5b6111258787878080601f01602080910402602001604051908101604052809392919081815260200183838082843782019150505050505086612801565b915060a060405190810160405280836000191681526020018873ffffffffffffffffffffffffffffffffffffffff16815260200187878080601f0160208091040260200160405190810160405280939291908181526020018383808284378201915050505050508152602001858152602001600115158152506004600084600019166000191681526020019081526020016000206000820151816000019060001916905560208201518160010160006101000a81548173ffffffffffffffffffffffffffffffffffffffff021916908373ffffffffffffffffffffffffffffffffffffffff160217905550604082015181600201908051906020019061122c9291906129a4565b506060820151816003015560808201518160040160006101000a81548160ff0219169083151502179055509050506001600360008282540192505081905550600192505050949350505050565b600060066000838152602001908152602001600020600501549050919050565b60008060008060149054906101000a900460ff161515611347576040517f08c379a00000000000000000000000000000000000000000000000000000000081526004018080602001828103825260258152602001807f436f6e74726163742069732063757272656e746c79206e6f74206f706572617481526020017f696f6e616c00000000000000000000000000000000000000000000000000000081525060400191505060405180910390fd5b87600260008273ffffffffffffffffffffffffffffffffffffffff1673ffffffffffffffffffffffffffffffffffffffff16815260200190815260200160002060000160149054906101000a900460ff1680156113f05750600260008273ffffffffffffffffffffffffffffffffffffffff1673ffffffffffffffffffffffffffffffffffffffff16815260200190815260200160002060000160159054906101000a900460ff165b151561148a576040517f08c379a000000000000000000000000000000000000000000000000000000000815260040180806020018281038252602b8152602001807f6169726c696e65206973206e6f74207265676973746572206f722066756c6c7981526020017f2066756e6465642079657400000000000000000000000000000000000000000081525060400191505060405180910390fd5b8888888080601f016020809104026020016040519081016040528093929190818152602001838380828437820191505050505050876114ca838383610de2565b151561153e576040517f08c379a000000000000000000000000000000000000000000000000000000000815260040180806020018281038252601a8152602001807f666c69676874206973206e6f742072656769737465722079657400000000000081525060200191505060405180910390fd5b61157b8c8c8c8080601f0160208091040260200160405190810160405280939291908181526020018383808284378201915050505050508b612801565b9550600554945060c0604051908101604052808681526020018d73ffffffffffffffffffffffffffffffffffffffff168152602001876000191681526020018973ffffffffffffffffffffffffffffffffffffffff1681526020013481526020016001815250600660008781526020019081526020016000206000820151816000015560208201518160010160006101000a81548173ffffffffffffffffffffffffffffffffffffffff021916908373ffffffffffffffffffffffffffffffffffffffff1602179055506040820151816002019060001916905560608201518160030160006101000a81548173ffffffffffffffffffffffffffffffffffffffff021916908373ffffffffffffffffffffffffffffffffffffffff1602179055506080820151816004015560a082015181600501559050506007859080600181540180825580915050906001820390600052602060002001600090919290919091505550600185016005819055506001965050505050505095945050505050565b60066020528060005260406000206000915090508060000154908060010160009054906101000a900473ffffffffffffffffffffffffffffffffffffffff16908060020154908060030160009054906101000a900473ffffffffffffffffffffffffffffffffffffffff16908060040154908060050154905086565b600060606000611786610d8a565b9150600090505b81518160ff1610156119a9578673ffffffffffffffffffffffffffffffffffffffff16600660008360ff16815260200190815260200160002060010160009054906101000a900473ffffffffffffffffffffffffffffffffffffffff1673ffffffffffffffffffffffffffffffffffffffff161480156118e257506118e160046000600660008560ff16815260200190815260200160002060020154600019166000191681526020019081526020016000206002018054600181600116156101000203166002900480601f0160208091040260200160405190810160405280929190818152602001828054600181600116156101000203166002900480156118d65780601f106118ab576101008083540402835291602001916118d6565b820191906000526020600020905b8154815290600101906020018083116118b957829003601f168201915b505050505087611e91565b5b801561195257508473ffffffffffffffffffffffffffffffffffffffff16600660008360ff16815260200190815260200160002060030160009054906101000a900473ffffffffffffffffffffffffffffffffffffffff1673ffffffffffffffffffffffffffffffffffffffff16145b8015611976575083600660008360ff16815260200190815260200160002060040154145b1561199c57600660008260ff1681526020019081526020016000206004015492506119ae565b808060010191505061178d565b600092505b5050949350505050565b6000606060006119c6610d8a565b9150600090505b81518160ff161015611be9578673ffffffffffffffffffffffffffffffffffffffff16600660008360ff16815260200190815260200160002060010160009054906101000a900473ffffffffffffffffffffffffffffffffffffffff1673ffffffffffffffffffffffffffffffffffffffff16148015611b225750611b2160046000600660008560ff16815260200190815260200160002060020154600019166000191681526020019081526020016000206002018054600181600116156101000203166002900480601f016020809104026020016040519081016040528092919081815260200182805460018160011615610100020316600290048015611b165780601f10611aeb57610100808354040283529160200191611b16565b820191906000526020600020905b815481529060010190602001808311611af957829003601f168201915b505050505087611e91565b5b8015611b9257508473ffffffffffffffffffffffffffffffffffffffff16600660008360ff16815260200190815260200160002060030160009054906101000a900473ffffffffffffffffffffffffffffffffffffffff1673ffffffffffffffffffffffffffffffffffffffff16145b8015611bb6575083600660008360ff16815260200190815260200160002060040154145b15611bdc57600660008260ff168152602001908152602001600020600501549250611bee565b80806001019150506119cd565b600092505b5050949350505050565b60008060008060149054906101000a900460ff161515611ca6576040517f08c379a00000000000000000000000000000000000000000000000000000000081526004018080602001828103825260258152602001807f436f6e74726163742069732063757272656e746c79206e6f74206f706572617481526020017f696f6e616c00000000000000000000000000000000000000000000000000000081525060400191505060405180910390fd5b87600260008273ffffffffffffffffffffffffffffffffffffffff1673ffffffffffffffffffffffffffffffffffffffff16815260200190815260200160002060000160149054906101000a900460ff168015611d4f5750600260008273ffffffffffffffffffffffffffffffffffffffff1673ffffffffffffffffffffffffffffffffffffffff16815260200190815260200160002060000160159054906101000a900460ff165b1515611de9576040517f08c379a000000000000000000000000000000000000000000000000000000000815260040180806020018281038252602b8152602001807f6169726c696e65206973206e6f74207265676973746572206f722066756c6c7981526020017f2066756e6465642079657400000000000000000000000000000000000000000081525060400191505060405180910390fd5b611e268989898080601f01602080910402602001604051908101604052809392919081815260200183838082843782019150505050505088612801565b9250600091505b600780549050821015611e7757600160066000600785815481101515611e4f57fe5b9060005260206000200154815260200190815260200160002050508180600101925050611e2d565b6001935050505095945050505050565b6000600154905090565b6000816040518082805190602001908083835b602083101515611ec95780518252602082019150602081019050602083039250611ea4565b6001836020036101000a038019825116818451168082178552505050505050905001915050604051809103902060001916836040518082805190602001908083835b602083101515611f305780518252602082019150602081019050602083039250611f0b565b6001836020036101000a03801982511681845116808217855250505050505090500191505060405180910390206000191614905092915050565b6000600354905090565b600080600060149054906101000a900460ff161515612021576040517f08c379a00000000000000000000000000000000000000000000000000000000081526004018080602001828103825260258152602001807f436f6e74726163742069732063757272656e746c79206e6f74206f706572617481526020017f696f6e616c00000000000000000000000000000000000000000000000000000081525060400191505060405180910390fd5b8261202b81610c4e565b15156120c5576040517f08c379a00000000000000000000000000000000000000000000000000000000081526004018080602001828103825260268152602001807f566f746572206e6f742066726f6d2072656769737465726564206169726c696e81526020017f6520283c3429000000000000000000000000000000000000000000000000000081525060400191505060405180910390fd5b600260008673ffffffffffffffffffffffffffffffffffffffff1673ffffffffffffffffffffffffffffffffffffffff16815260200190815260200160002060000160149054906101000a900460ff1615151561218a576040517f08c379a000000000000000000000000000000000000000000000000000000000815260040180806020018281038252601e8152602001807f4169726c696e6520697320616c726561647920726567697374657265642e000081525060200191505060405180910390fd5b60046001541015612300576080604051908101604052808673ffffffffffffffffffffffffffffffffffffffff16815260200160011515815260200160001515815260200160006040519080825280602002602001820160405280156121ff5781602001602082028038833980820191505090505b50815250600260008773ffffffffffffffffffffffffffffffffffffffff1673ffffffffffffffffffffffffffffffffffffffff16815260200190815260200160002060008201518160000160006101000a81548173ffffffffffffffffffffffffffffffffffffffff021916908373ffffffffffffffffffffffffffffffffffffffff16021790555060208201518160000160146101000a81548160ff02191690831515021790555060408201518160000160156101000a81548160ff02191690831515021790555060608201518160010190805190602001906122e5929190612a24565b5090505060016000815480929190600101919050555061277e565b600073ffffffffffffffffffffffffffffffffffffffff16600260008773ffffffffffffffffffffffffffffffffffffffff1673ffffffffffffffffffffffffffffffffffffffff16815260200190815260200160002060000160009054906101000a900473ffffffffffffffffffffffffffffffffffffffff1673ffffffffffffffffffffffffffffffffffffffff1614156124ec576080604051908101604052808673ffffffffffffffffffffffffffffffffffffffff16815260200160001515815260200160001515815260200160006040519080825280602002602001820160405280156124015781602001602082028038833980820191505090505b50815250600260008773ffffffffffffffffffffffffffffffffffffffff1673ffffffffffffffffffffffffffffffffffffffff16815260200190815260200160002060008201518160000160006101000a81548173ffffffffffffffffffffffffffffffffffffffff021916908373ffffffffffffffffffffffffffffffffffffffff16021790555060208201518160000160146101000a81548160ff02191690831515021790555060408201518160000160156101000a81548160ff02191690831515021790555060608201518160010190805190602001906124e7929190612a24565b509050505b6125bc600260008773ffffffffffffffffffffffffffffffffffffffff1673ffffffffffffffffffffffffffffffffffffffff1681526020019081526020016000206001018054806020026020016040519081016040528092919081815260200182805480156125b157602002820191906000526020600020905b8160009054906101000a900473ffffffffffffffffffffffffffffffffffffffff1673ffffffffffffffffffffffffffffffffffffffff1681526020019060010190808311612567575b505050505085612926565b151561266957600260008673ffffffffffffffffffffffffffffffffffffffff1673ffffffffffffffffffffffffffffffffffffffff1681526020019081526020016000206001018490806001815401808255809150509060018203906000526020600020016000909192909190916101000a81548173ffffffffffffffffffffffffffffffffffffffff021916908373ffffffffffffffffffffffffffffffffffffffff160217905550505b600260015481151561267757fe5b049150600260008673ffffffffffffffffffffffffffffffffffffffff1673ffffffffffffffffffffffffffffffffffffffff16815260200190815260200160002060010180549050925081600260008773ffffffffffffffffffffffffffffffffffffffff1673ffffffffffffffffffffffffffffffffffffffff16815260200190815260200160002060010180549050111561277d576001600081548092919060010191905055506001600260008773ffffffffffffffffffffffffffffffffffffffff1673ffffffffffffffffffffffffffffffffffffffff16815260200190815260200160002060000160146101000a81548160ff0219169083151502179055505b5b505092915050565b60008060149054906101000a900460ff16905090565b678ac7230489e8000081565b6000600260008373ffffffffffffffffffffffffffffffffffffffff1673ffffffffffffffffffffffffffffffffffffffff16815260200190815260200160002060000160159054906101000a900460ff169050919050565b6000838383604051602001808473ffffffffffffffffffffffffffffffffffffffff1673ffffffffffffffffffffffffffffffffffffffff166c0100000000000000000000000002815260140183805190602001908083835b60208310151561287f578051825260208201915060208101905060208303925061285a565b6001836020036101000a03801982511681845116808217855250505050505090500182815260200193505050506040516020818303038152906040526040518082805190602001908083835b6020831015156128f057805182526020820191506020810190506020830392506128cb565b6001836020036101000a038019825116818451168082178552505050505050905001915050604051809103902090509392505050565b600080600090505b8351811015612998578273ffffffffffffffffffffffffffffffffffffffff16848281518110151561295c57fe5b9060200190602002015173ffffffffffffffffffffffffffffffffffffffff16141561298b576001915061299d565b808060010191505061292e565b600091505b5092915050565b828054600181600116156101000203166002900490600052602060002090601f016020900481019282601f106129e557805160ff1916838001178555612a13565b82800160010185558215612a13579182015b82811115612a125782518255916020019190600101906129f7565b5b509050612a209190612aae565b5090565b828054828255906000526020600020908101928215612a9d579160200282015b82811115612a9c5782518260006101000a81548173ffffffffffffffffffffffffffffffffffffffff021916908373ffffffffffffffffffffffffffffffffffffffff16021790555091602001919060010190612a44565b5b509050612aaa9190612ad3565b5090565b612ad091905b80821115612acc576000816000905550600101612ab4565b5090565b90565b612b1391905b80821115612b0f57600081816101000a81549073ffffffffffffffffffffffffffffffffffffffff021916905550600101612ad9565b5090565b905600a165627a7a72305820b92c886c810d211a266d7a1f7f1ae2aa49d762bf6f14778ffb376006b191b5ad0029",
  "source": "pragma solidity ^0.4.25;\n\nimport \"../node_modules/openzeppelin-solidity/contracts/math/SafeMath.sol\";\n\ncontract FlightSuretyData {\n    using SafeMath for uint256;\n\n    /********************************************************************************************/\n    /*                                       DATA VARIABLES                                     */\n    /********************************************************************************************/\n\n    address private contractOwner;                                      // Account used to deploy contract\n    bool private operational = true;                                    // Blocks all state changes throughout the contract if false\n\n    //address[] private airlines;\n\n    uint256 totalRegisteredAirlines;\n    struct Airline {\n        address airline;\n        bool isRegistered;\n        bool isFunded;\n        address[] voters;\n    }\n    mapping(address => Airline) registeredAirlines; \n\n    uint256 totalRegisteredFlights;\n    struct Flight {\n        bytes32 key;\n        address airline;\n        string flightCode;\n        uint departureTime;\n        bool isRegistered;\n        // uint status;\n        // uint updatedTime;\n    }\n    mapping(bytes32 => Flight) registeredFlights;    \n\n    uint256 totalBoughtInsurance;\n    struct Insurance {\n        uint256 id;\n        address airline;\n        bytes32 flightKey;\n        address insuree;\n        uint256 amount;\n        uint state; // 0 = not found, 1 = new\n    }\n    mapping(uint256 => Insurance) public insurances; \n    uint256[] insuranceIDs;    \n\n\n    uint256 public constant AIRLINE_REGISTRATION_FEE = 10 ether;\n\n    /********************************************************************************************/\n    /*                                       EVENT DEFINITIONS                                  */\n    /********************************************************************************************/\n\n\n    /**\n    * @dev Constructor\n    *      The deploying account becomes contractOwner\n    */\n    constructor\n                                (\n                                    address initialAirline\n                                ) \n                                public \n    {\n        contractOwner = msg.sender;\n\n\n        registeredAirlines[initialAirline] = Airline({\n                                        airline: initialAirline,\n                                        isRegistered: true,\n                                        isFunded: false,\n                                        voters: new address[](0x00)\n                                });\n        totalRegisteredAirlines = 1;\n        //airlines.push(initialAirline);\n    }\n\n    /********************************************************************************************/\n    /*                                       FUNCTION MODIFIERS                                 */\n    /********************************************************************************************/\n\n    // Modifiers help avoid duplication of code. They are typically used to validate something\n    // before a function is allowed to be executed.\n\n    /**\n    * @dev Modifier that requires the \"operational\" boolean variable to be \"true\"\n    *      This is used on all state changing functions to pause the contract in \n    *      the event there is an issue that needs to be fixed\n    */\n    modifier requireIsOperational() \n    {\n        require(operational, \"Contract is currently not operational\");\n        _;  // All modifiers require an \"_\" which indicates where the function body will be added\n    }\n\n    modifier requireAirlineOperable(address airline) \n    {\n        require(registeredAirlines[airline].isRegistered && registeredAirlines[airline].isFunded, \"airline is not register or fully funded yet\");\n        _;  \n    }\n\n    modifier requireFlightRegistered(address airline, string flightCode, uint256 timestamp) \n    {\n        require(isFlightRegistered(airline, flightCode, timestamp), \"flight is not register yet\");\n        _;  \n    }\n\n    \n\n    /**\n    * @dev Modifier that requires the \"ContractOwner\" account to be the function caller\n    */\n    modifier requireContractOwner()\n    {\n        require(msg.sender == contractOwner, \"Caller is not contract owner\");\n        _;\n    }\n\n\n    modifier requireFromRegisteredAirlines(address voter)\n    {\n        require(isAirlineRegistered(voter), \"Voter not from registered airline (<4)\");\n        _;\n    }\n\n    /********************************************************************************************/\n    /*                                       UTILITY FUNCTIONS                                  */\n    /********************************************************************************************/\n\n    /**\n    * @dev Get operating status of contract\n    *\n    * @return A bool that is the current operating status\n    */      \n    function isOperational() \n                            public \n                            view \n                            returns(bool) \n    {\n        return operational;\n    }\n\n\n    /**\n    * @dev Sets contract operations on/off\n    *\n    * When operational mode is disabled, all write transactions except for this one will fail\n    */    \n    function setOperatingStatus\n                            (\n                                bool mode\n                            ) \n                            external\n                            requireContractOwner \n    {\n        operational = mode;\n    }\n\n    /********************************************************************************************/\n    /*                                     SMART CONTRACT FUNCTIONS                             */\n    /********************************************************************************************/\n\n    function registerFlight\n                            (\n                                address airline, \n                                string flightCode,\n                                uint256 timestamp\n\n                            )\n                            external\n                            requireIsOperational\n                            requireAirlineOperable(airline)\n                            returns(bool success)\n    {\n        var key = getFlightKey(airline, flightCode, timestamp);\n\n\n        registeredFlights[key] = Flight({\n                                        key: key,\n                                        airline: airline,\n                                        flightCode: flightCode,\n                                        departureTime: timestamp,\n                                        isRegistered: true\n                                });\n        totalRegisteredFlights += 1;\n        success = true;\n\n    }\n\n   /**\n    * @dev Add an airline to the registration queue\n    *      Can only be called from FlightSuretyApp contract\n    *\n    */   \n    function registerAirline\n                            (\n                            address airline,\n                            address voter\n                            )\n                            external\n                            requireIsOperational\n                            requireFromRegisteredAirlines(voter)\n                            returns(uint256 votes)\n\n    {\n\n        require(!registeredAirlines[airline].isRegistered, \"Airline is already registered.\");\n\n        if(totalRegisteredAirlines < 4)\n        {\n            registeredAirlines[airline] = Airline({\n                                            airline: airline,\n                                            isRegistered: true,\n                                            isFunded: false,\n                                            voters: new address[](0x00)\n                                    });\n            totalRegisteredAirlines ++;\n        }\n        else\n        {\n            if (registeredAirlines[airline].airline == address(0x0))\n            {\n                registeredAirlines[airline] = Airline({\n                                                airline: airline,\n                                                isRegistered: false,\n                                                isFunded: false,\n                                                voters: new address[](0x00)\n                                        });\n            }\n            if(!isExistInArray(registeredAirlines[airline].voters, voter))\n            {\n                registeredAirlines[airline].voters.push(voter);\n            }\n            uint treshold = totalRegisteredAirlines / 2;\n            votes = registeredAirlines[airline].voters.length;\n            if(registeredAirlines[airline].voters.length > treshold)\n            {\n                totalRegisteredAirlines ++;\n                registeredAirlines[airline].isRegistered = true;\n            }\n\n        }\n    }\n\n\n   /**\n    * @dev Buy insurance for a flight\n    *\n    */   \n    function buy\n                            (   \n                            address airline,\n                            string flightCode,\n                            uint256 timestamp,\n                            address insuree                          \n                            )\n                            external\n                            payable\n                            requireIsOperational\n                            requireAirlineOperable(airline)\n                            requireFlightRegistered(airline, flightCode, timestamp)\n                            returns(bool success)\n    {\n\n        var flightKey = getFlightKey(airline, flightCode, timestamp);\n\n\n        uint256 insID = totalBoughtInsurance;\n        insurances[insID] = Insurance({\n                                        id: insID,\n                                        airline: airline,\n                                        flightKey: flightKey,\n                                        insuree: insuree,\n                                        amount: msg.value,\n                                        state: 1\n                                });\n        insuranceIDs.push(insID);\n        totalBoughtInsurance = insID + 1;\n        success = true;\n    }\n\n    /**\n     *  @dev Credits payouts to insurees\n    */\n    function creditInsurees\n                                (\n                                    address airline,\n                                    string flightCode,\n                                    uint256 timestamp,\n                                    uint8 statusCode\n                                )\n                                external\n                                requireIsOperational\n                                requireAirlineOperable(airline)\n                                returns(bool success)\n    {\n\n        bytes32 flightKey = getFlightKey(airline, flightCode, timestamp);\n\n        //loop through id and credit insuree with multiplier\n        for(uint i = 0; i<insuranceIDs.length; i++)\n        {\n            if(insurances[insuranceIDs[i]].state == 1)\n            {\n                // credit\n                // flightSuretyData.creditInsurees();\n            }\n\n        }\n        return true;\n    }\n    \n\n    /**\n     *  @dev Transfers eligible payout funds to insuree\n     *\n    */\n    function pay\n                            (\n                            )\n                            external\n                            pure\n    {\n    }\n\n   /**\n    * @dev Initial funding for the insurance. Unless there are too many delayed flights\n    *      resulting in insurance payouts, the contract should be self-sustaining\n    *\n    */   \n    function fund\n                            (  \n                            address airline \n                            )\n                            public\n                            payable\n                            requireIsOperational\n                            requireFromRegisteredAirlines(airline)\n    {\n\n        require(msg.value >= AIRLINE_REGISTRATION_FEE, \"Not sufficient fund\");\n        registeredAirlines[airline].isFunded = true;\n    }\n\n    function getFlightKey\n                        (\n                            address airline,\n                            string memory flight,\n                            uint256 timestamp\n                        )\n                        pure\n                        internal\n                        returns(bytes32) \n    {\n        return keccak256(abi.encodePacked(airline, flight, timestamp));\n    }\n\n    /**\n    * @dev Fallback function for funding smart contract.\n    *\n    */\n    function() \n                            external \n                            payable \n    {\n        fund(msg.sender);\n    }\n\n\n\n    /**\n    * helpers\n    *\n    */\n\n    function isFlightRegistered(address airline, string flightCode, uint256 timestamp) public view returns (bool result) {\n        var key = getFlightKey(airline, flightCode, timestamp);\n        return registeredFlights[key].isRegistered;\n    }\n\n\n    function isAirlineRegistered(address airline) public view returns (bool result) {\n        return registeredAirlines[airline].isRegistered;\n    }\n\n    function isAirlineFunded(address airline) public view returns (bool result) {\n        return registeredAirlines[airline].isFunded;\n    }\n\n    function isExistInArray(address[] targetArray, address searchElement) private view returns (bool result) {\n        for(uint256 i=0; i< targetArray.length; i++)\n        {\n            if (targetArray[i] == searchElement)\n            {\n                return true;\n            }\n        }\n        return false;\n    }\n\n    function getTotalRegisteredAirlines() public view returns (uint256 result) {\n        result = totalRegisteredAirlines;\n    }\n\n    function getTotalRegisteredFlights() public view returns (uint256 result) {\n        result = totalRegisteredFlights;\n    }\n\n    function getVoters(address airline) public view returns (address[] result) {\n        result = registeredAirlines[airline].voters;\n    }\n\n    function getInsuranceState ( address airline, string memory flightCode, address insuree, uint256 amount ) public view returns (uint)\n    {\n        var allIns = getInsuranceIDs();\n        for(uint8 i = 0; i< allIns.length; i++)\n        {\n            if(insurances[i].airline == airline && isEqualString(registeredFlights[insurances[i].flightKey].flightCode, flightCode) && insurances[i].insuree == insuree && insurances[i].amount == amount)\n            {\n                return insurances[i].state;\n            }\n        }\n        return 0;\n    }\n\n    function getInsuranceStateByID ( uint256 insuranceID ) public view returns (uint)\n    {\n        return insurances[insuranceID].state;\n    }\n\n    function getInsuranceAmount ( address airline, string flightCode, address insuree, uint256 amount ) public view returns (uint)\n    {\n        var allIns = getInsuranceIDs();\n        for(uint8 i = 0; i< allIns.length; i++)\n        {\n            if(insurances[i].airline == airline && isEqualString(registeredFlights[insurances[i].flightKey].flightCode, flightCode) && insurances[i].insuree == insuree && insurances[i].amount == amount)\n            {\n                return insurances[i].amount;\n            }\n        }\n        return 0;\n    }\n\n    function getInsuranceIDs ( ) public view returns (uint256[])\n    {\n        return insuranceIDs;\n    }   \n\n    function isEqualString( string a, string b) public view returns (bool)\n    {\n        return keccak256(bytes(a)) == keccak256(bytes(b));\n    }\n\n\n\n}\n\n",
  "sourcePath": "/Users/pongsaks/Udacity/Blockchain/Nanodegree_BlockchainDev/projects/p4_flightsurety/contracts/FlightSuretyData.sol",
  "compiler": {
    "name": "solc",
    "version": "0.4.26+commit.4563c3fc.Emscripten.clang"
  },
  "schemaVersion": "3.0.3",
  "updatedAt": "2021-09-04T13:33:58.859Z",
  "devdoc": {
    "methods": {
      "buy(address,string,uint256,address)": {
        "details": "Buy insurance for a flight    "
      },
      "creditInsurees(address,string,uint256,uint8)": {
        "details": "Credits payouts to insurees"
      },
      "fund(address)": {
        "details": "Initial funding for the insurance. Unless there are too many delayed flights     resulting in insurance payouts, the contract should be self-sustaining    "
      },
      "isOperational()": {
        "details": "Get operating status of contract",
        "return": "A bool that is the current operating status"
      },
      "pay()": {
        "details": "Transfers eligible payout funds to insuree    "
      },
      "registerAirline(address,address)": {
        "details": "Add an airline to the registration queue     Can only be called from FlightSuretyApp contract    "
      },
      "setOperatingStatus(bool)": {
        "details": "Sets contract operations on/off    * When operational mode is disabled, all write transactions except for this one will fail"
      }
    }
  },
  "userdoc": {
    "methods": {
      "isFlightRegistered(address,string,uint256)": {
        "notice": "helpers    "
      },
      "registerFlight(address,string,uint256)": {
        "notice": "*****************************************************************************************"
      }
    }
  }
}