{
  "contractName": "FlightSuretyData",
  "abi": [
    {
      "constant": true,
      "inputs": [
        {
          "name": "",
          "type": "uint256"
        }
      ],
      "name": "insurances",
      "outputs": [
        {
          "name": "id",
          "type": "uint256"
        },
        {
          "name": "airline",
          "type": "address"
        },
        {
          "name": "flightKey",
          "type": "bytes32"
        },
        {
          "name": "insuree",
          "type": "address"
        },
        {
          "name": "amount",
          "type": "uint256"
        },
        {
          "name": "state",
          "type": "uint256"
        }
      ],
      "payable": false,
      "stateMutability": "view",
      "type": "function",
      "signature": "0x59fb49f9"
    },
    {
      "constant": true,
      "inputs": [],
      "name": "AIRLINE_REGISTRATION_FEE",
      "outputs": [
        {
          "name": "",
          "type": "uint256"
        }
      ],
      "payable": false,
      "stateMutability": "view",
      "type": "function",
      "signature": "0xd8f73ca5"
    },
    {
      "inputs": [
        {
          "name": "initialAirline",
          "type": "address"
        }
      ],
      "payable": false,
      "stateMutability": "nonpayable",
      "type": "constructor",
      "signature": "constructor"
    },
    {
      "payable": true,
      "stateMutability": "payable",
      "type": "fallback"
    },
    {
      "constant": true,
      "inputs": [],
      "name": "isOperational",
      "outputs": [
        {
          "name": "",
          "type": "bool"
        }
      ],
      "payable": false,
      "stateMutability": "view",
      "type": "function",
      "signature": "0xcd905dff"
    },
    {
      "constant": false,
      "inputs": [
        {
          "name": "mode",
          "type": "bool"
        }
      ],
      "name": "setOperatingStatus",
      "outputs": [],
      "payable": false,
      "stateMutability": "nonpayable",
      "type": "function",
      "signature": "0x110466ed"
    },
    {
      "constant": false,
      "inputs": [
        {
          "name": "airline",
          "type": "address"
        },
        {
          "name": "flightCode",
          "type": "string"
        },
        {
          "name": "timestamp",
          "type": "uint256"
        }
      ],
      "name": "registerFlight",
      "outputs": [
        {
          "name": "success",
          "type": "bool"
        }
      ],
      "payable": false,
      "stateMutability": "nonpayable",
      "type": "function",
      "signature": "0x3cc0be9c"
    },
    {
      "constant": false,
      "inputs": [
        {
          "name": "airline",
          "type": "address"
        },
        {
          "name": "voter",
          "type": "address"
        }
      ],
      "name": "registerAirline",
      "outputs": [
        {
          "name": "votes",
          "type": "uint256"
        }
      ],
      "payable": false,
      "stateMutability": "nonpayable",
      "type": "function",
      "signature": "0xc7ba5018"
    },
    {
      "constant": false,
      "inputs": [
        {
          "name": "airline",
          "type": "address"
        },
        {
          "name": "flightCode",
          "type": "string"
        },
        {
          "name": "timestamp",
          "type": "uint256"
        },
        {
          "name": "insuree",
          "type": "address"
        }
      ],
      "name": "buy",
      "outputs": [
        {
          "name": "success",
          "type": "bool"
        }
      ],
      "payable": true,
      "stateMutability": "payable",
      "type": "function",
      "signature": "0x4f253f6e"
    },
    {
      "constant": false,
      "inputs": [
        {
          "name": "airline",
          "type": "address"
        },
        {
          "name": "flightCode",
          "type": "string"
        },
        {
          "name": "timestamp",
          "type": "uint256"
        },
        {
          "name": "statusCode",
          "type": "uint8"
        }
      ],
      "name": "creditInsurees",
      "outputs": [
        {
          "name": "success",
          "type": "bool"
        }
      ],
      "payable": false,
      "stateMutability": "nonpayable",
      "type": "function",
      "signature": "0x97ee2467"
    },
    {
      "constant": false,
      "inputs": [
        {
          "name": "insuree",
          "type": "address"
        }
      ],
      "name": "pay",
      "outputs": [
        {
          "name": "success",
          "type": "bool"
        }
      ],
      "payable": true,
      "stateMutability": "payable",
      "type": "function",
      "signature": "0x0c11dedd"
    },
    {
      "constant": false,
      "inputs": [
        {
          "name": "airline",
          "type": "address"
        }
      ],
      "name": "fund",
      "outputs": [],
      "payable": true,
      "stateMutability": "payable",
      "type": "function",
      "signature": "0x23024408"
    },
    {
      "constant": true,
      "inputs": [
        {
          "name": "airline",
          "type": "address"
        },
        {
          "name": "flightCode",
          "type": "string"
        },
        {
          "name": "timestamp",
          "type": "uint256"
        }
      ],
      "name": "isFlightRegistered",
      "outputs": [
        {
          "name": "result",
          "type": "bool"
        }
      ],
      "payable": false,
      "stateMutability": "view",
      "type": "function",
      "signature": "0x241a53cb"
    },
    {
      "constant": true,
      "inputs": [
        {
          "name": "airline",
          "type": "address"
        }
      ],
      "name": "isAirlineRegistered",
      "outputs": [
        {
          "name": "result",
          "type": "bool"
        }
      ],
      "payable": false,
      "stateMutability": "view",
      "type": "function",
      "signature": "0x010c5c97"
    },
    {
      "constant": true,
      "inputs": [
        {
          "name": "airline",
          "type": "address"
        }
      ],
      "name": "isAirlineFunded",
      "outputs": [
        {
          "name": "result",
          "type": "bool"
        }
      ],
      "payable": false,
      "stateMutability": "view",
      "type": "function",
      "signature": "0xf53b6d65"
    },
    {
      "constant": true,
      "inputs": [],
      "name": "getTotalRegisteredAirlines",
      "outputs": [
        {
          "name": "result",
          "type": "uint256"
        }
      ],
      "payable": false,
      "stateMutability": "view",
      "type": "function",
      "signature": "0x994de453"
    },
    {
      "constant": true,
      "inputs": [],
      "name": "getTotalRegisteredFlights",
      "outputs": [
        {
          "name": "result",
          "type": "uint256"
        }
      ],
      "payable": false,
      "stateMutability": "view",
      "type": "function",
      "signature": "0xba1befa8"
    },
    {
      "constant": true,
      "inputs": [
        {
          "name": "airline",
          "type": "address"
        }
      ],
      "name": "getVoters",
      "outputs": [
        {
          "name": "result",
          "type": "address[]"
        }
      ],
      "payable": false,
      "stateMutability": "view",
      "type": "function",
      "signature": "0x2d15cc04"
    },
    {
      "constant": true,
      "inputs": [
        {
          "name": "airline",
          "type": "address"
        },
        {
          "name": "flightCode",
          "type": "string"
        },
        {
          "name": "insuree",
          "type": "address"
        },
        {
          "name": "amount",
          "type": "uint256"
        }
      ],
      "name": "getInsuranceState",
      "outputs": [
        {
          "name": "",
          "type": "uint256"
        }
      ],
      "payable": false,
      "stateMutability": "view",
      "type": "function",
      "signature": "0x8c85b513"
    },
    {
      "constant": true,
      "inputs": [
        {
          "name": "insuranceID",
          "type": "uint256"
        }
      ],
      "name": "getInsuranceStateByID",
      "outputs": [
        {
          "name": "",
          "type": "uint256"
        }
      ],
      "payable": false,
      "stateMutability": "view",
      "type": "function",
      "signature": "0x43df72dc"
    },
    {
      "constant": true,
      "inputs": [
        {
          "name": "airline",
          "type": "address"
        },
        {
          "name": "flightCode",
          "type": "string"
        },
        {
          "name": "insuree",
          "type": "address"
        },
        {
          "name": "amount",
          "type": "uint256"
        }
      ],
      "name": "getInsuranceAmount",
      "outputs": [
        {
          "name": "",
          "type": "uint256"
        }
      ],
      "payable": false,
      "stateMutability": "view",
      "type": "function",
      "signature": "0x76d04520"
    },
    {
      "constant": true,
      "inputs": [],
      "name": "getInsuranceIDs",
      "outputs": [
        {
          "name": "",
          "type": "uint256[]"
        }
      ],
      "payable": false,
      "stateMutability": "view",
      "type": "function",
      "signature": "0x203bc1a5"
    },
    {
      "constant": true,
      "inputs": [
        {
          "name": "a",
          "type": "string"
        },
        {
          "name": "b",
          "type": "string"
        }
      ],
      "name": "isEqualString",
      "outputs": [
        {
          "name": "",
          "type": "bool"
        }
      ],
      "payable": false,
      "stateMutability": "view",
      "type": "function",
      "signature": "0xb27b4067"
    }
  ],
  "bytecode": "0x60806040526001600060146101000a81548160ff0219169083151502179055503480156200002c57600080fd5b50604051602080620030ec83398101806040528101908080519060200190929190505050336000806101000a81548173ffffffffffffffffffffffffffffffffffffffff021916908373ffffffffffffffffffffffffffffffffffffffff1602179055506080604051908101604052808273ffffffffffffffffffffffffffffffffffffffff1681526020016001151581526020016000151581526020016000604051908082528060200260200182016040528015620000fb5781602001602082028038833980820191505090505b50815250600260008373ffffffffffffffffffffffffffffffffffffffff1673ffffffffffffffffffffffffffffffffffffffff16815260200190815260200160002060008201518160000160006101000a81548173ffffffffffffffffffffffffffffffffffffffff021916908373ffffffffffffffffffffffffffffffffffffffff16021790555060208201518160000160146101000a81548160ff02191690831515021790555060408201518160000160156101000a81548160ff0219169083151502179055506060820151816001019080519060200190620001e3929190620001f5565b509050506001808190555050620002ca565b82805482825590600052602060002090810192821562000271579160200282015b82811115620002705782518260006101000a81548173ffffffffffffffffffffffffffffffffffffffff021916908373ffffffffffffffffffffffffffffffffffffffff1602179055509160200191906001019062000216565b5b50905062000280919062000284565b5090565b620002c791905b80821115620002c357600081816101000a81549073ffffffffffffffffffffffffffffffffffffffff0219169055506001016200028b565b5090565b90565b612e1280620002da6000396000f30060806040526004361061011d576000357c0100000000000000000000000000000000000000000000000000000000900463ffffffff168063010c5c97146101285780630c11dedd14610183578063110466ed146101d1578063203bc1a514610200578063230244081461026c578063241a53cb146102a25780632d15cc041461034d5780633cc0be9c146103e557806343df72dc146104625780634f253f6e146104a357806359fb49f91461053357806376d04520146105f75780638c85b513146106be57806397ee246714610785578063994de4531461080f578063b27b40671461083a578063ba1befa814610901578063c7ba50181461092c578063cd905dff146109a3578063d8f73ca5146109d2578063f53b6d65146109fd575b61012633610a58565b005b34801561013457600080fd5b50610169600480360381019080803573ffffffffffffffffffffffffffffffffffffffff169060200190929190505050610c85565b604051808215151515815260200191505060405180910390f35b6101b7600480360381019080803573ffffffffffffffffffffffffffffffffffffffff169060200190929190505050610cde565b604051808215151515815260200191505060405180910390f35b3480156101dd57600080fd5b506101fe600480360381019080803515159060200190929190505050610f3b565b005b34801561020c57600080fd5b5061021561101c565b6040518080602001828103825283818151815260200191508051906020019060200280838360005b8381101561025857808201518184015260208101905061023d565b505050509050019250505060405180910390f35b6102a0600480360381019080803573ffffffffffffffffffffffffffffffffffffffff169060200190929190505050610a58565b005b3480156102ae57600080fd5b50610333600480360381019080803573ffffffffffffffffffffffffffffffffffffffff169060200190929190803590602001908201803590602001908080601f016020809104026020016040519081016040528093929190818152602001838380828437820191505050505050919291929080359060200190929190505050611074565b604051808215151515815260200191505060405180910390f35b34801561035957600080fd5b5061038e600480360381019080803573ffffffffffffffffffffffffffffffffffffffff1690602001909291905050506110ba565b6040518080602001828103825283818151815260200191508051906020019060200280838360005b838110156103d15780820151818401526020810190506103b6565b505050509050019250505060405180910390f35b3480156103f157600080fd5b50610448600480360381019080803573ffffffffffffffffffffffffffffffffffffffff1690602001909291908035906020019082018035906020019190919293919293908035906020019092919050505061118a565b604051808215151515815260200191505060405180910390f35b34801561046e57600080fd5b5061048d6004803603810190808035906020019092919050505061150b565b6040518082815260200191505060405180910390f35b610519600480360381019080803573ffffffffffffffffffffffffffffffffffffffff16906020019092919080359060200190820180359060200191909192939192939080359060200190929190803573ffffffffffffffffffffffffffffffffffffffff16906020019092919050505061152b565b604051808215151515815260200191505060405180910390f35b34801561053f57600080fd5b5061055e6004803603810190808035906020019092919050505061198e565b604051808781526020018673ffffffffffffffffffffffffffffffffffffffff1673ffffffffffffffffffffffffffffffffffffffff16815260200185600019166000191681526020018473ffffffffffffffffffffffffffffffffffffffff1673ffffffffffffffffffffffffffffffffffffffff168152602001838152602001828152602001965050505050505060405180910390f35b34801561060357600080fd5b506106a8600480360381019080803573ffffffffffffffffffffffffffffffffffffffff169060200190929190803590602001908201803590602001908080601f0160208091040260200160405190810160405280939291908181526020018383808284378201915050505050509192919290803573ffffffffffffffffffffffffffffffffffffffff16906020019092919080359060200190929190505050611a0a565b6040518082815260200191505060405180910390f35b3480156106ca57600080fd5b5061076f600480360381019080803573ffffffffffffffffffffffffffffffffffffffff169060200190929190803590602001908201803590602001908080601f0160208091040260200160405190810160405280939291908181526020018383808284378201915050505050509192919290803573ffffffffffffffffffffffffffffffffffffffff16906020019092919080359060200190929190505050611c4a565b6040518082815260200191505060405180910390f35b34801561079157600080fd5b506107f5600480360381019080803573ffffffffffffffffffffffffffffffffffffffff16906020019092919080359060200190820180359060200191909192939192939080359060200190929190803560ff169060200190929190505050611e8a565b604051808215151515815260200191505060405180910390f35b34801561081b57600080fd5b50610824612157565b6040518082815260200191505060405180910390f35b34801561084657600080fd5b506108e7600480360381019080803590602001908201803590602001908080601f0160208091040260200160405190810160405280939291908181526020018383808284378201915050505050509192919290803590602001908201803590602001908080601f0160208091040260200160405190810160405280939291908181526020018383808284378201915050505050509192919290505050612161565b604051808215151515815260200191505060405180910390f35b34801561090d57600080fd5b5061091661223a565b6040518082815260200191505060405180910390f35b34801561093857600080fd5b5061098d600480360381019080803573ffffffffffffffffffffffffffffffffffffffff169060200190929190803573ffffffffffffffffffffffffffffffffffffffff169060200190929190505050612244565b6040518082815260200191505060405180910390f35b3480156109af57600080fd5b506109b8612a56565b604051808215151515815260200191505060405180910390f35b3480156109de57600080fd5b506109e7612a6c565b6040518082815260200191505060405180910390f35b348015610a0957600080fd5b50610a3e600480360381019080803573ffffffffffffffffffffffffffffffffffffffff169060200190929190505050612a78565b604051808215151515815260200191505060405180910390f35b600060149054906101000a900460ff161515610b02576040517f08c379a00000000000000000000000000000000000000000000000000000000081526004018080602001828103825260258152602001807f436f6e74726163742069732063757272656e746c79206e6f74206f706572617481526020017f696f6e616c00000000000000000000000000000000000000000000000000000081525060400191505060405180910390fd5b80610b0c81610c85565b1515610ba6576040517f08c379a00000000000000000000000000000000000000000000000000000000081526004018080602001828103825260268152602001807f566f746572206e6f742066726f6d2072656769737465726564206169726c696e81526020017f6520283c3429000000000000000000000000000000000000000000000000000081525060400191505060405180910390fd5b678ac7230489e800003410151515610c26576040517f08c379a00000000000000000000000000000000000000000000000000000000081526004018080602001828103825260138152602001807f4e6f742073756666696369656e742066756e640000000000000000000000000081525060200191505060405180910390fd5b6001600260008473ffffffffffffffffffffffffffffffffffffffff1673ffffffffffffffffffffffffffffffffffffffff16815260200190815260200160002060000160156101000a81548160ff0219169083151502179055505050565b6000600260008373ffffffffffffffffffffffffffffffffffffffff1673ffffffffffffffffffffffffffffffffffffffff16815260200190815260200160002060000160149054906101000a900460ff169050919050565b60008060008060149054906101000a900460ff161515610d8c576040517f08c379a00000000000000000000000000000000000000000000000000000000081526004018080602001828103825260258152602001807f436f6e74726163742069732063757272656e746c79206e6f74206f706572617481526020017f696f6e616c00000000000000000000000000000000000000000000000000000081525060400191505060405180910390fd5b600091505b600780549050821015610f2f578373ffffffffffffffffffffffffffffffffffffffff1660066000600785815481101515610dc857fe5b9060005260206000200154815260200190815260200160002060030160009054906101000a900473ffffffffffffffffffffffffffffffffffffffff1673ffffffffffffffffffffffffffffffffffffffff16148015610e575750600260066000600785815481101515610e3857fe5b9060005260206000200154815260200190815260200160002060050154145b15610f2257600960066000600785815481101515610e7157fe5b90600052602060002001548152602001908152602001600020600501819055506002600360066000600786815481101515610ea857fe5b906000526020600020015481526020019081526020016000206004015402811515610ecf57fe5b0490508373ffffffffffffffffffffffffffffffffffffffff166108fc829081150290604051600060405180830381858888f19350505050158015610f18573d6000803e3d6000fd5b5060019250610f34565b8180600101925050610d91565b600092505b5050919050565b6000809054906101000a900473ffffffffffffffffffffffffffffffffffffffff1673ffffffffffffffffffffffffffffffffffffffff163373ffffffffffffffffffffffffffffffffffffffff16141515610fff576040517f08c379a000000000000000000000000000000000000000000000000000000000815260040180806020018281038252601c8152602001807f43616c6c6572206973206e6f7420636f6e7472616374206f776e65720000000081525060200191505060405180910390fd5b80600060146101000a81548160ff02191690831515021790555050565b6060600780548060200260200160405190810160405280929190818152602001828054801561106a57602002820191906000526020600020905b815481526020019060010190808311611056575b5050505050905090565b600080611082858585612ad1565b905060046000826000191660001916815260200190815260200160002060040160009054906101000a900460ff169150509392505050565b6060600260008373ffffffffffffffffffffffffffffffffffffffff1673ffffffffffffffffffffffffffffffffffffffff16815260200190815260200160002060010180548060200260200160405190810160405280929190818152602001828054801561117e57602002820191906000526020600020905b8160009054906101000a900473ffffffffffffffffffffffffffffffffffffffff1673ffffffffffffffffffffffffffffffffffffffff1681526020019060010190808311611134575b50505050509050919050565b600080600060149054906101000a900460ff161515611237576040517f08c379a00000000000000000000000000000000000000000000000000000000081526004018080602001828103825260258152602001807f436f6e74726163742069732063757272656e746c79206e6f74206f706572617481526020017f696f6e616c00000000000000000000000000000000000000000000000000000081525060400191505060405180910390fd5b85600260008273ffffffffffffffffffffffffffffffffffffffff1673ffffffffffffffffffffffffffffffffffffffff16815260200190815260200160002060000160149054906101000a900460ff1680156112e05750600260008273ffffffffffffffffffffffffffffffffffffffff1673ffffffffffffffffffffffffffffffffffffffff16815260200190815260200160002060000160159054906101000a900460ff165b151561137a576040517f08c379a000000000000000000000000000000000000000000000000000000000815260040180806020018281038252602b8152602001807f6169726c696e65206973206e6f74207265676973746572206f722066756c6c7981526020017f2066756e6465642079657400000000000000000000000000000000000000000081525060400191505060405180910390fd5b6113b78787878080601f01602080910402602001604051908101604052809392919081815260200183838082843782019150505050505086612ad1565b915060a060405190810160405280836000191681526020018873ffffffffffffffffffffffffffffffffffffffff16815260200187878080601f0160208091040260200160405190810160405280939291908181526020018383808284378201915050505050508152602001858152602001600115158152506004600084600019166000191681526020019081526020016000206000820151816000019060001916905560208201518160010160006101000a81548173ffffffffffffffffffffffffffffffffffffffff021916908373ffffffffffffffffffffffffffffffffffffffff16021790555060408201518160020190805190602001906114be929190612c74565b506060820151816003015560808201518160040160006101000a81548160ff0219169083151502179055509050506001600360008282540192505081905550600192505050949350505050565b600060066000838152602001908152602001600020600501549050919050565b60008060008060149054906101000a900460ff1615156115d9576040517f08c379a00000000000000000000000000000000000000000000000000000000081526004018080602001828103825260258152602001807f436f6e74726163742069732063757272656e746c79206e6f74206f706572617481526020017f696f6e616c00000000000000000000000000000000000000000000000000000081525060400191505060405180910390fd5b87600260008273ffffffffffffffffffffffffffffffffffffffff1673ffffffffffffffffffffffffffffffffffffffff16815260200190815260200160002060000160149054906101000a900460ff1680156116825750600260008273ffffffffffffffffffffffffffffffffffffffff1673ffffffffffffffffffffffffffffffffffffffff16815260200190815260200160002060000160159054906101000a900460ff165b151561171c576040517f08c379a000000000000000000000000000000000000000000000000000000000815260040180806020018281038252602b8152602001807f6169726c696e65206973206e6f74207265676973746572206f722066756c6c7981526020017f2066756e6465642079657400000000000000000000000000000000000000000081525060400191505060405180910390fd5b8888888080601f0160208091040260200160405190810160405280939291908181526020018383808284378201915050505050508761175c838383611074565b15156117d0576040517f08c379a000000000000000000000000000000000000000000000000000000000815260040180806020018281038252601a8152602001807f666c69676874206973206e6f742072656769737465722079657400000000000081525060200191505060405180910390fd5b61180d8c8c8c8080601f0160208091040260200160405190810160405280939291908181526020018383808284378201915050505050508b612ad1565b9550600554945060c0604051908101604052808681526020018d73ffffffffffffffffffffffffffffffffffffffff168152602001876000191681526020018973ffffffffffffffffffffffffffffffffffffffff1681526020013481526020016001815250600660008781526020019081526020016000206000820151816000015560208201518160010160006101000a81548173ffffffffffffffffffffffffffffffffffffffff021916908373ffffffffffffffffffffffffffffffffffffffff1602179055506040820151816002019060001916905560608201518160030160006101000a81548173ffffffffffffffffffffffffffffffffffffffff021916908373ffffffffffffffffffffffffffffffffffffffff1602179055506080820151816004015560a082015181600501559050506007859080600181540180825580915050906001820390600052602060002001600090919290919091505550600185016005819055506001965050505050505095945050505050565b60066020528060005260406000206000915090508060000154908060010160009054906101000a900473ffffffffffffffffffffffffffffffffffffffff16908060020154908060030160009054906101000a900473ffffffffffffffffffffffffffffffffffffffff16908060040154908060050154905086565b600060606000611a1861101c565b9150600090505b81518160ff161015611c3b578673ffffffffffffffffffffffffffffffffffffffff16600660008360ff16815260200190815260200160002060010160009054906101000a900473ffffffffffffffffffffffffffffffffffffffff1673ffffffffffffffffffffffffffffffffffffffff16148015611b745750611b7360046000600660008560ff16815260200190815260200160002060020154600019166000191681526020019081526020016000206002018054600181600116156101000203166002900480601f016020809104026020016040519081016040528092919081815260200182805460018160011615610100020316600290048015611b685780601f10611b3d57610100808354040283529160200191611b68565b820191906000526020600020905b815481529060010190602001808311611b4b57829003601f168201915b505050505087612161565b5b8015611be457508473ffffffffffffffffffffffffffffffffffffffff16600660008360ff16815260200190815260200160002060030160009054906101000a900473ffffffffffffffffffffffffffffffffffffffff1673ffffffffffffffffffffffffffffffffffffffff16145b8015611c08575083600660008360ff16815260200190815260200160002060040154145b15611c2e57600660008260ff168152602001908152602001600020600401549250611c40565b8080600101915050611a1f565b600092505b5050949350505050565b600060606000611c5861101c565b9150600090505b81518160ff161015611e7b578673ffffffffffffffffffffffffffffffffffffffff16600660008360ff16815260200190815260200160002060010160009054906101000a900473ffffffffffffffffffffffffffffffffffffffff1673ffffffffffffffffffffffffffffffffffffffff16148015611db45750611db360046000600660008560ff16815260200190815260200160002060020154600019166000191681526020019081526020016000206002018054600181600116156101000203166002900480601f016020809104026020016040519081016040528092919081815260200182805460018160011615610100020316600290048015611da85780601f10611d7d57610100808354040283529160200191611da8565b820191906000526020600020905b815481529060010190602001808311611d8b57829003601f168201915b505050505087612161565b5b8015611e2457508473ffffffffffffffffffffffffffffffffffffffff16600660008360ff16815260200190815260200160002060030160009054906101000a900473ffffffffffffffffffffffffffffffffffffffff1673ffffffffffffffffffffffffffffffffffffffff16145b8015611e48575083600660008360ff16815260200190815260200160002060040154145b15611e6e57600660008260ff168152602001908152602001600020600501549250611e80565b8080600101915050611c5f565b600092505b5050949350505050565b60008060008060149054906101000a900460ff161515611f38576040517f08c379a00000000000000000000000000000000000000000000000000000000081526004018080602001828103825260258152602001807f436f6e74726163742069732063757272656e746c79206e6f74206f706572617481526020017f696f6e616c00000000000000000000000000000000000000000000000000000081525060400191505060405180910390fd5b87600260008273ffffffffffffffffffffffffffffffffffffffff1673ffffffffffffffffffffffffffffffffffffffff16815260200190815260200160002060000160149054906101000a900460ff168015611fe15750600260008273ffffffffffffffffffffffffffffffffffffffff1673ffffffffffffffffffffffffffffffffffffffff16815260200190815260200160002060000160159054906101000a900460ff165b151561207b576040517f08c379a000000000000000000000000000000000000000000000000000000000815260040180806020018281038252602b8152602001807f6169726c696e65206973206e6f74207265676973746572206f722066756c6c7981526020017f2066756e6465642079657400000000000000000000000000000000000000000081525060400191505060405180910390fd5b6120b88989898080601f01602080910402602001604051908101604052809392919081815260200183838082843782019150505050505088612ad1565b9250600091505b600780549050821015612147576001600660006007858154811015156120e157fe5b9060005260206000200154815260200190815260200160002060050154141561213a5760026006600060078581548110151561211957fe5b90600052602060002001548152602001908152602001600020600501819055505b81806001019250506120bf565b6001935050505095945050505050565b6000600154905090565b6000816040518082805190602001908083835b6020831015156121995780518252602082019150602081019050602083039250612174565b6001836020036101000a038019825116818451168082178552505050505050905001915050604051809103902060001916836040518082805190602001908083835b60208310151561220057805182526020820191506020810190506020830392506121db565b6001836020036101000a03801982511681845116808217855250505050505090500191505060405180910390206000191614905092915050565b6000600354905090565b600080600060149054906101000a900460ff1615156122f1576040517f08c379a00000000000000000000000000000000000000000000000000000000081526004018080602001828103825260258152602001807f436f6e74726163742069732063757272656e746c79206e6f74206f706572617481526020017f696f6e616c00000000000000000000000000000000000000000000000000000081525060400191505060405180910390fd5b826122fb81610c85565b1515612395576040517f08c379a00000000000000000000000000000000000000000000000000000000081526004018080602001828103825260268152602001807f566f746572206e6f742066726f6d2072656769737465726564206169726c696e81526020017f6520283c3429000000000000000000000000000000000000000000000000000081525060400191505060405180910390fd5b600260008673ffffffffffffffffffffffffffffffffffffffff1673ffffffffffffffffffffffffffffffffffffffff16815260200190815260200160002060000160149054906101000a900460ff1615151561245a576040517f08c379a000000000000000000000000000000000000000000000000000000000815260040180806020018281038252601e8152602001807f4169726c696e6520697320616c726561647920726567697374657265642e000081525060200191505060405180910390fd5b600460015410156125d0576080604051908101604052808673ffffffffffffffffffffffffffffffffffffffff16815260200160011515815260200160001515815260200160006040519080825280602002602001820160405280156124cf5781602001602082028038833980820191505090505b50815250600260008773ffffffffffffffffffffffffffffffffffffffff1673ffffffffffffffffffffffffffffffffffffffff16815260200190815260200160002060008201518160000160006101000a81548173ffffffffffffffffffffffffffffffffffffffff021916908373ffffffffffffffffffffffffffffffffffffffff16021790555060208201518160000160146101000a81548160ff02191690831515021790555060408201518160000160156101000a81548160ff02191690831515021790555060608201518160010190805190602001906125b5929190612cf4565b50905050600160008154809291906001019190505550612a4e565b600073ffffffffffffffffffffffffffffffffffffffff16600260008773ffffffffffffffffffffffffffffffffffffffff1673ffffffffffffffffffffffffffffffffffffffff16815260200190815260200160002060000160009054906101000a900473ffffffffffffffffffffffffffffffffffffffff1673ffffffffffffffffffffffffffffffffffffffff1614156127bc576080604051908101604052808673ffffffffffffffffffffffffffffffffffffffff16815260200160001515815260200160001515815260200160006040519080825280602002602001820160405280156126d15781602001602082028038833980820191505090505b50815250600260008773ffffffffffffffffffffffffffffffffffffffff1673ffffffffffffffffffffffffffffffffffffffff16815260200190815260200160002060008201518160000160006101000a81548173ffffffffffffffffffffffffffffffffffffffff021916908373ffffffffffffffffffffffffffffffffffffffff16021790555060208201518160000160146101000a81548160ff02191690831515021790555060408201518160000160156101000a81548160ff02191690831515021790555060608201518160010190805190602001906127b7929190612cf4565b509050505b61288c600260008773ffffffffffffffffffffffffffffffffffffffff1673ffffffffffffffffffffffffffffffffffffffff16815260200190815260200160002060010180548060200260200160405190810160405280929190818152602001828054801561288157602002820191906000526020600020905b8160009054906101000a900473ffffffffffffffffffffffffffffffffffffffff1673ffffffffffffffffffffffffffffffffffffffff1681526020019060010190808311612837575b505050505085612bf6565b151561293957600260008673ffffffffffffffffffffffffffffffffffffffff1673ffffffffffffffffffffffffffffffffffffffff1681526020019081526020016000206001018490806001815401808255809150509060018203906000526020600020016000909192909190916101000a81548173ffffffffffffffffffffffffffffffffffffffff021916908373ffffffffffffffffffffffffffffffffffffffff160217905550505b600260015481151561294757fe5b049150600260008673ffffffffffffffffffffffffffffffffffffffff1673ffffffffffffffffffffffffffffffffffffffff16815260200190815260200160002060010180549050925081600260008773ffffffffffffffffffffffffffffffffffffffff1673ffffffffffffffffffffffffffffffffffffffff168152602001908152602001600020600101805490501115612a4d576001600081548092919060010191905055506001600260008773ffffffffffffffffffffffffffffffffffffffff1673ffffffffffffffffffffffffffffffffffffffff16815260200190815260200160002060000160146101000a81548160ff0219169083151502179055505b5b505092915050565b60008060149054906101000a900460ff16905090565b678ac7230489e8000081565b6000600260008373ffffffffffffffffffffffffffffffffffffffff1673ffffffffffffffffffffffffffffffffffffffff16815260200190815260200160002060000160159054906101000a900460ff169050919050565b6000838383604051602001808473ffffffffffffffffffffffffffffffffffffffff1673ffffffffffffffffffffffffffffffffffffffff166c0100000000000000000000000002815260140183805190602001908083835b602083101515612b4f5780518252602082019150602081019050602083039250612b2a565b6001836020036101000a03801982511681845116808217855250505050505090500182815260200193505050506040516020818303038152906040526040518082805190602001908083835b602083101515612bc05780518252602082019150602081019050602083039250612b9b565b6001836020036101000a038019825116818451168082178552505050505050905001915050604051809103902090509392505050565b600080600090505b8351811015612c68578273ffffffffffffffffffffffffffffffffffffffff168482815181101515612c2c57fe5b9060200190602002015173ffffffffffffffffffffffffffffffffffffffff161415612c5b5760019150612c6d565b8080600101915050612bfe565b600091505b5092915050565b828054600181600116156101000203166002900490600052602060002090601f016020900481019282601f10612cb557805160ff1916838001178555612ce3565b82800160010185558215612ce3579182015b82811115612ce2578251825591602001919060010190612cc7565b5b509050612cf09190612d7e565b5090565b828054828255906000526020600020908101928215612d6d579160200282015b82811115612d6c5782518260006101000a81548173ffffffffffffffffffffffffffffffffffffffff021916908373ffffffffffffffffffffffffffffffffffffffff16021790555091602001919060010190612d14565b5b509050612d7a9190612da3565b5090565b612da091905b80821115612d9c576000816000905550600101612d84565b5090565b90565b612de391905b80821115612ddf57600081816101000a81549073ffffffffffffffffffffffffffffffffffffffff021916905550600101612da9565b5090565b905600a165627a7a7230582008a2ec9900d9619500de67f944176057f482bf2ed34a063d7b93e1f69822ecd70029",
  "source": "pragma solidity ^0.4.25;\n\nimport \"../node_modules/openzeppelin-solidity/contracts/math/SafeMath.sol\";\n\ncontract FlightSuretyData {\n    using SafeMath for uint256;\n\n    /********************************************************************************************/\n    /*                                       DATA VARIABLES                                     */\n    /********************************************************************************************/\n\n    address private contractOwner;                                      // Account used to deploy contract\n    bool private operational = true;                                    // Blocks all state changes throughout the contract if false\n\n    //address[] private airlines;\n\n    uint256 totalRegisteredAirlines;\n    struct Airline {\n        address airline;\n        bool isRegistered;\n        bool isFunded;\n        address[] voters;\n    }\n    mapping(address => Airline) registeredAirlines; \n\n    uint256 totalRegisteredFlights;\n    struct Flight {\n        bytes32 key;\n        address airline;\n        string flightCode;\n        uint departureTime;\n        bool isRegistered;\n        // uint status;\n        // uint updatedTime;\n    }\n    mapping(bytes32 => Flight) registeredFlights;    \n\n    uint256 totalBoughtInsurance;\n    struct Insurance {\n        uint256 id;\n        address airline;\n        bytes32 flightKey;\n        address insuree;\n        uint256 amount;\n        uint state; // 0 = not found, 1 = new, 2 = flight delay, 9 = paid out\n    }\n    mapping(uint256 => Insurance) public insurances; \n    uint256[] insuranceIDs;    \n\n\n    uint256 public constant AIRLINE_REGISTRATION_FEE = 10 ether;\n\n    /********************************************************************************************/\n    /*                                       EVENT DEFINITIONS                                  */\n    /********************************************************************************************/\n\n\n    /**\n    * @dev Constructor\n    *      The deploying account becomes contractOwner\n    */\n    constructor\n                                (\n                                    address initialAirline\n                                ) \n                                public \n    {\n        contractOwner = msg.sender;\n\n\n        registeredAirlines[initialAirline] = Airline({\n                                        airline: initialAirline,\n                                        isRegistered: true,\n                                        isFunded: false,\n                                        voters: new address[](0x00)\n                                });\n        totalRegisteredAirlines = 1;\n        //airlines.push(initialAirline);\n    }\n\n    /********************************************************************************************/\n    /*                                       FUNCTION MODIFIERS                                 */\n    /********************************************************************************************/\n\n    // Modifiers help avoid duplication of code. They are typically used to validate something\n    // before a function is allowed to be executed.\n\n    /**\n    * @dev Modifier that requires the \"operational\" boolean variable to be \"true\"\n    *      This is used on all state changing functions to pause the contract in \n    *      the event there is an issue that needs to be fixed\n    */\n    modifier requireIsOperational() \n    {\n        require(operational, \"Contract is currently not operational\");\n        _;  // All modifiers require an \"_\" which indicates where the function body will be added\n    }\n\n    modifier requireAirlineOperable(address airline) \n    {\n        require(registeredAirlines[airline].isRegistered && registeredAirlines[airline].isFunded, \"airline is not register or fully funded yet\");\n        _;  \n    }\n\n    modifier requireFlightRegistered(address airline, string flightCode, uint256 timestamp) \n    {\n        require(isFlightRegistered(airline, flightCode, timestamp), \"flight is not register yet\");\n        _;  \n    }\n\n    \n\n    /**\n    * @dev Modifier that requires the \"ContractOwner\" account to be the function caller\n    */\n    modifier requireContractOwner()\n    {\n        require(msg.sender == contractOwner, \"Caller is not contract owner\");\n        _;\n    }\n\n\n    modifier requireFromRegisteredAirlines(address voter)\n    {\n        require(isAirlineRegistered(voter), \"Voter not from registered airline (<4)\");\n        _;\n    }\n\n    /********************************************************************************************/\n    /*                                       UTILITY FUNCTIONS                                  */\n    /********************************************************************************************/\n\n    /**\n    * @dev Get operating status of contract\n    *\n    * @return A bool that is the current operating status\n    */      \n    function isOperational() \n                            public \n                            view \n                            returns(bool) \n    {\n        return operational;\n    }\n\n\n    /**\n    * @dev Sets contract operations on/off\n    *\n    * When operational mode is disabled, all write transactions except for this one will fail\n    */    \n    function setOperatingStatus\n                            (\n                                bool mode\n                            ) \n                            external\n                            requireContractOwner \n    {\n        operational = mode;\n    }\n\n    /********************************************************************************************/\n    /*                                     SMART CONTRACT FUNCTIONS                             */\n    /********************************************************************************************/\n\n    function registerFlight\n                            (\n                                address airline, \n                                string flightCode,\n                                uint256 timestamp\n\n                            )\n                            external\n                            requireIsOperational\n                            requireAirlineOperable(airline)\n                            returns(bool success)\n    {\n        var key = getFlightKey(airline, flightCode, timestamp);\n\n\n        registeredFlights[key] = Flight({\n                                        key: key,\n                                        airline: airline,\n                                        flightCode: flightCode,\n                                        departureTime: timestamp,\n                                        isRegistered: true\n                                });\n        totalRegisteredFlights += 1;\n        success = true;\n\n    }\n\n   /**\n    * @dev Add an airline to the registration queue\n    *      Can only be called from FlightSuretyApp contract\n    *\n    */   \n    function registerAirline\n                            (\n                            address airline,\n                            address voter\n                            )\n                            external\n                            requireIsOperational\n                            requireFromRegisteredAirlines(voter)\n                            returns(uint256 votes)\n\n    {\n\n        require(!registeredAirlines[airline].isRegistered, \"Airline is already registered.\");\n\n        if(totalRegisteredAirlines < 4)\n        {\n            registeredAirlines[airline] = Airline({\n                                            airline: airline,\n                                            isRegistered: true,\n                                            isFunded: false,\n                                            voters: new address[](0x00)\n                                    });\n            totalRegisteredAirlines ++;\n        }\n        else\n        {\n            if (registeredAirlines[airline].airline == address(0x0))\n            {\n                registeredAirlines[airline] = Airline({\n                                                airline: airline,\n                                                isRegistered: false,\n                                                isFunded: false,\n                                                voters: new address[](0x00)\n                                        });\n            }\n            if(!isExistInArray(registeredAirlines[airline].voters, voter))\n            {\n                registeredAirlines[airline].voters.push(voter);\n            }\n            uint treshold = totalRegisteredAirlines / 2;\n            votes = registeredAirlines[airline].voters.length;\n            if(registeredAirlines[airline].voters.length > treshold)\n            {\n                totalRegisteredAirlines ++;\n                registeredAirlines[airline].isRegistered = true;\n            }\n\n        }\n    }\n\n\n   /**\n    * @dev Buy insurance for a flight\n    *\n    */   \n    function buy\n                            (   \n                            address airline,\n                            string flightCode,\n                            uint256 timestamp,\n                            address insuree                          \n                            )\n                            external\n                            payable\n                            requireIsOperational\n                            requireAirlineOperable(airline)\n                            requireFlightRegistered(airline, flightCode, timestamp)\n                            returns(bool success)\n    {\n\n        var flightKey = getFlightKey(airline, flightCode, timestamp);\n\n\n        uint256 insID = totalBoughtInsurance;\n        insurances[insID] = Insurance({\n                                        id: insID,\n                                        airline: airline,\n                                        flightKey: flightKey,\n                                        insuree: insuree,\n                                        amount: msg.value,\n                                        state: 1\n                                });\n        insuranceIDs.push(insID);\n        totalBoughtInsurance = insID + 1;\n        success = true;\n    }\n\n    /**\n     *  @dev Credits payouts to insurees\n    */\n    function creditInsurees\n                                (\n                                    address airline,\n                                    string flightCode,\n                                    uint256 timestamp,\n                                    uint8 statusCode\n                                )\n                                external\n                                requireIsOperational\n                                requireAirlineOperable(airline)\n                                returns(bool success)\n    {\n\n        bytes32 flightKey = getFlightKey(airline, flightCode, timestamp);\n\n        //loop through id and credit insuree with multiplier\n        for(uint i = 0; i<insuranceIDs.length; i++)\n        {\n            if(insurances[insuranceIDs[i]].state == 1)\n            {\n                insurances[insuranceIDs[i]].state = 2;\n            }\n\n        }\n        return true;\n    }\n    \n\n    /**\n     *  @dev Transfers eligible payout funds to insuree\n     *\n    */\n    function pay\n                            (\n                                address insuree\n                            )\n                            external\n                            payable\n                            requireIsOperational\n                            returns (bool success)\n    {\n        for(uint i = 0; i<insuranceIDs.length; i++)\n        {\n            if(insurances[insuranceIDs[i]].insuree == insuree && insurances[insuranceIDs[i]].state == 2)\n            {\n                insurances[insuranceIDs[i]].state = 9;\n                var paidAmount = insurances[insuranceIDs[i]].amount * 3 / 2;\n                insuree.transfer(paidAmount);\n                return true;\n            }\n        }\n        return false;\n    }\n\n   /**\n    * @dev Initial funding for the insurance. Unless there are too many delayed flights\n    *      resulting in insurance payouts, the contract should be self-sustaining\n    *\n    */   \n    function fund\n                            (  \n                            address airline \n                            )\n                            public\n                            payable\n                            requireIsOperational\n                            requireFromRegisteredAirlines(airline)\n    {\n\n        require(msg.value >= AIRLINE_REGISTRATION_FEE, \"Not sufficient fund\");\n        registeredAirlines[airline].isFunded = true;\n    }\n\n    function getFlightKey\n                        (\n                            address airline,\n                            string memory flight,\n                            uint256 timestamp\n                        )\n                        pure\n                        internal\n                        returns(bytes32) \n    {\n        return keccak256(abi.encodePacked(airline, flight, timestamp));\n    }\n\n    /**\n    * @dev Fallback function for funding smart contract.\n    *\n    */\n    function() \n                            external \n                            payable \n    {\n        fund(msg.sender);\n    }\n\n\n\n    /**\n    * helpers\n    *\n    */\n\n    function isFlightRegistered(address airline, string flightCode, uint256 timestamp) public view returns (bool result) {\n        var key = getFlightKey(airline, flightCode, timestamp);\n        return registeredFlights[key].isRegistered;\n    }\n\n\n    function isAirlineRegistered(address airline) public view returns (bool result) {\n        return registeredAirlines[airline].isRegistered;\n    }\n\n    function isAirlineFunded(address airline) public view returns (bool result) {\n        return registeredAirlines[airline].isFunded;\n    }\n\n    function isExistInArray(address[] targetArray, address searchElement) private view returns (bool result) {\n        for(uint256 i=0; i< targetArray.length; i++)\n        {\n            if (targetArray[i] == searchElement)\n            {\n                return true;\n            }\n        }\n        return false;\n    }\n\n    function getTotalRegisteredAirlines() public view returns (uint256 result) {\n        result = totalRegisteredAirlines;\n    }\n\n    function getTotalRegisteredFlights() public view returns (uint256 result) {\n        result = totalRegisteredFlights;\n    }\n\n    function getVoters(address airline) public view returns (address[] result) {\n        result = registeredAirlines[airline].voters;\n    }\n\n    function getInsuranceState ( address airline, string memory flightCode, address insuree, uint256 amount ) public view returns (uint)\n    {\n        var allIns = getInsuranceIDs();\n        for(uint8 i = 0; i< allIns.length; i++)\n        {\n            if(insurances[i].airline == airline && isEqualString(registeredFlights[insurances[i].flightKey].flightCode, flightCode) && insurances[i].insuree == insuree && insurances[i].amount == amount)\n            {\n                return insurances[i].state;\n            }\n        }\n        return 0;\n    }\n\n    function getInsuranceStateByID ( uint256 insuranceID ) public view returns (uint)\n    {\n        return insurances[insuranceID].state;\n    }\n\n    function getInsuranceAmount ( address airline, string flightCode, address insuree, uint256 amount ) public view returns (uint)\n    {\n        var allIns = getInsuranceIDs();\n        for(uint8 i = 0; i< allIns.length; i++)\n        {\n            if(insurances[i].airline == airline && isEqualString(registeredFlights[insurances[i].flightKey].flightCode, flightCode) && insurances[i].insuree == insuree && insurances[i].amount == amount)\n            {\n                return insurances[i].amount;\n            }\n        }\n        return 0;\n    }\n\n    function getInsuranceIDs ( ) public view returns (uint256[])\n    {\n        return insuranceIDs;\n    }   \n\n    function isEqualString( string a, string b) public view returns (bool)\n    {\n        return keccak256(bytes(a)) == keccak256(bytes(b));\n    }\n\n\n\n}\n\n",
  "sourcePath": "/Users/pongsaks/Udacity/Blockchain/Nanodegree_BlockchainDev/projects/p4_flightsurety/contracts/FlightSuretyData.sol",
  "compiler": {
    "name": "solc",
    "version": "0.4.26+commit.4563c3fc.Emscripten.clang"
  },
  "schemaVersion": "3.0.3",
  "updatedAt": "2021-09-04T15:40:11.389Z",
  "devdoc": {
    "methods": {
      "buy(address,string,uint256,address)": {
        "details": "Buy insurance for a flight    "
      },
      "creditInsurees(address,string,uint256,uint8)": {
        "details": "Credits payouts to insurees"
      },
      "fund(address)": {
        "details": "Initial funding for the insurance. Unless there are too many delayed flights     resulting in insurance payouts, the contract should be self-sustaining    "
      },
      "isOperational()": {
        "details": "Get operating status of contract",
        "return": "A bool that is the current operating status"
      },
      "pay(address)": {
        "details": "Transfers eligible payout funds to insuree    "
      },
      "registerAirline(address,address)": {
        "details": "Add an airline to the registration queue     Can only be called from FlightSuretyApp contract    "
      },
      "setOperatingStatus(bool)": {
        "details": "Sets contract operations on/off    * When operational mode is disabled, all write transactions except for this one will fail"
      }
    }
  },
  "userdoc": {
    "methods": {
      "isFlightRegistered(address,string,uint256)": {
        "notice": "helpers    "
      },
      "registerFlight(address,string,uint256)": {
        "notice": "*****************************************************************************************"
      }
    }
  }
}