{
  "contractName": "FlightSuretyData",
  "abi": [
    {
      "constant": true,
      "inputs": [],
      "name": "AIRLINE_REGISTRATION_FEE",
      "outputs": [
        {
          "name": "",
          "type": "uint256"
        }
      ],
      "payable": false,
      "stateMutability": "view",
      "type": "function",
      "signature": "0xd8f73ca5"
    },
    {
      "inputs": [
        {
          "name": "initialAirline",
          "type": "address"
        }
      ],
      "payable": false,
      "stateMutability": "nonpayable",
      "type": "constructor",
      "signature": "constructor"
    },
    {
      "payable": true,
      "stateMutability": "payable",
      "type": "fallback"
    },
    {
      "constant": true,
      "inputs": [],
      "name": "isOperational",
      "outputs": [
        {
          "name": "",
          "type": "bool"
        }
      ],
      "payable": false,
      "stateMutability": "view",
      "type": "function",
      "signature": "0xcd905dff"
    },
    {
      "constant": false,
      "inputs": [
        {
          "name": "mode",
          "type": "bool"
        }
      ],
      "name": "setOperatingStatus",
      "outputs": [],
      "payable": false,
      "stateMutability": "nonpayable",
      "type": "function",
      "signature": "0x110466ed"
    },
    {
      "constant": false,
      "inputs": [
        {
          "name": "airline",
          "type": "address"
        },
        {
          "name": "flightCode",
          "type": "string"
        },
        {
          "name": "timestamp",
          "type": "uint256"
        }
      ],
      "name": "registerFlight",
      "outputs": [
        {
          "name": "success",
          "type": "bool"
        }
      ],
      "payable": false,
      "stateMutability": "nonpayable",
      "type": "function",
      "signature": "0x3cc0be9c"
    },
    {
      "constant": false,
      "inputs": [
        {
          "name": "airline",
          "type": "address"
        },
        {
          "name": "voter",
          "type": "address"
        }
      ],
      "name": "registerAirline",
      "outputs": [
        {
          "name": "votes",
          "type": "uint256"
        }
      ],
      "payable": false,
      "stateMutability": "nonpayable",
      "type": "function",
      "signature": "0xc7ba5018"
    },
    {
      "constant": false,
      "inputs": [
        {
          "name": "airline",
          "type": "address"
        },
        {
          "name": "flightCode",
          "type": "string"
        },
        {
          "name": "timestamp",
          "type": "uint256"
        },
        {
          "name": "insuree",
          "type": "address"
        }
      ],
      "name": "buy",
      "outputs": [
        {
          "name": "success",
          "type": "bool"
        }
      ],
      "payable": true,
      "stateMutability": "payable",
      "type": "function",
      "signature": "0x4f253f6e"
    },
    {
      "constant": true,
      "inputs": [],
      "name": "creditInsurees",
      "outputs": [],
      "payable": false,
      "stateMutability": "pure",
      "type": "function",
      "signature": "0x36cee484"
    },
    {
      "constant": true,
      "inputs": [],
      "name": "pay",
      "outputs": [],
      "payable": false,
      "stateMutability": "pure",
      "type": "function",
      "signature": "0x1b9265b8"
    },
    {
      "constant": false,
      "inputs": [
        {
          "name": "airline",
          "type": "address"
        }
      ],
      "name": "fund",
      "outputs": [],
      "payable": true,
      "stateMutability": "payable",
      "type": "function",
      "signature": "0x23024408"
    },
    {
      "constant": true,
      "inputs": [
        {
          "name": "airline",
          "type": "address"
        },
        {
          "name": "flightCode",
          "type": "string"
        },
        {
          "name": "timestamp",
          "type": "uint256"
        }
      ],
      "name": "isFlightRegistered",
      "outputs": [
        {
          "name": "result",
          "type": "bool"
        }
      ],
      "payable": false,
      "stateMutability": "view",
      "type": "function",
      "signature": "0x241a53cb"
    },
    {
      "constant": true,
      "inputs": [
        {
          "name": "airline",
          "type": "address"
        }
      ],
      "name": "isAirlineRegistered",
      "outputs": [
        {
          "name": "result",
          "type": "bool"
        }
      ],
      "payable": false,
      "stateMutability": "view",
      "type": "function",
      "signature": "0x010c5c97"
    },
    {
      "constant": true,
      "inputs": [
        {
          "name": "airline",
          "type": "address"
        }
      ],
      "name": "isAirlineFunded",
      "outputs": [
        {
          "name": "result",
          "type": "bool"
        }
      ],
      "payable": false,
      "stateMutability": "view",
      "type": "function",
      "signature": "0xf53b6d65"
    },
    {
      "constant": true,
      "inputs": [],
      "name": "getTotalRegisteredAirlines",
      "outputs": [
        {
          "name": "result",
          "type": "uint256"
        }
      ],
      "payable": false,
      "stateMutability": "view",
      "type": "function",
      "signature": "0x994de453"
    },
    {
      "constant": true,
      "inputs": [],
      "name": "getTotalRegisteredFlights",
      "outputs": [
        {
          "name": "result",
          "type": "uint256"
        }
      ],
      "payable": false,
      "stateMutability": "view",
      "type": "function",
      "signature": "0xba1befa8"
    },
    {
      "constant": true,
      "inputs": [
        {
          "name": "airline",
          "type": "address"
        }
      ],
      "name": "getVoters",
      "outputs": [
        {
          "name": "result",
          "type": "address[]"
        }
      ],
      "payable": false,
      "stateMutability": "view",
      "type": "function",
      "signature": "0x2d15cc04"
    },
    {
      "constant": true,
      "inputs": [
        {
          "name": "airline",
          "type": "address"
        },
        {
          "name": "flightCode",
          "type": "string"
        },
        {
          "name": "insuree",
          "type": "address"
        },
        {
          "name": "amount",
          "type": "uint256"
        }
      ],
      "name": "getInsuranceState",
      "outputs": [
        {
          "name": "",
          "type": "uint256"
        }
      ],
      "payable": false,
      "stateMutability": "view",
      "type": "function",
      "signature": "0x8c85b513"
    },
    {
      "constant": true,
      "inputs": [
        {
          "name": "insuranceID",
          "type": "uint256"
        }
      ],
      "name": "getInsuranceStateByID",
      "outputs": [
        {
          "name": "",
          "type": "uint256"
        }
      ],
      "payable": false,
      "stateMutability": "view",
      "type": "function",
      "signature": "0x43df72dc"
    },
    {
      "constant": true,
      "inputs": [
        {
          "name": "airline",
          "type": "address"
        },
        {
          "name": "flightCode",
          "type": "string"
        },
        {
          "name": "insuree",
          "type": "address"
        },
        {
          "name": "amount",
          "type": "uint256"
        }
      ],
      "name": "getInsuranceAmount",
      "outputs": [
        {
          "name": "",
          "type": "uint256"
        }
      ],
      "payable": false,
      "stateMutability": "view",
      "type": "function",
      "signature": "0x76d04520"
    },
    {
      "constant": true,
      "inputs": [],
      "name": "getInsuranceIDs",
      "outputs": [
        {
          "name": "",
          "type": "uint256[]"
        }
      ],
      "payable": false,
      "stateMutability": "view",
      "type": "function",
      "signature": "0x203bc1a5"
    },
    {
      "constant": true,
      "inputs": [
        {
          "name": "a",
          "type": "string"
        },
        {
          "name": "b",
          "type": "string"
        }
      ],
      "name": "isEqualString",
      "outputs": [
        {
          "name": "",
          "type": "bool"
        }
      ],
      "payable": false,
      "stateMutability": "view",
      "type": "function",
      "signature": "0xb27b4067"
    }
  ],
  "bytecode": "0x60806040526001600060146101000a81548160ff0219169083151502179055503480156200002c57600080fd5b50604051602080620029d183398101806040528101908080519060200190929190505050336000806101000a81548173ffffffffffffffffffffffffffffffffffffffff021916908373ffffffffffffffffffffffffffffffffffffffff1602179055506080604051908101604052808273ffffffffffffffffffffffffffffffffffffffff1681526020016001151581526020016000151581526020016000604051908082528060200260200182016040528015620000fb5781602001602082028038833980820191505090505b50815250600260008373ffffffffffffffffffffffffffffffffffffffff1673ffffffffffffffffffffffffffffffffffffffff16815260200190815260200160002060008201518160000160006101000a81548173ffffffffffffffffffffffffffffffffffffffff021916908373ffffffffffffffffffffffffffffffffffffffff16021790555060208201518160000160146101000a81548160ff02191690831515021790555060408201518160000160156101000a81548160ff0219169083151502179055506060820151816001019080519060200190620001e3929190620001f5565b509050506001808190555050620002ca565b82805482825590600052602060002090810192821562000271579160200282015b82811115620002705782518260006101000a81548173ffffffffffffffffffffffffffffffffffffffff021916908373ffffffffffffffffffffffffffffffffffffffff1602179055509160200191906001019062000216565b5b50905062000280919062000284565b5090565b620002c791905b80821115620002c357600081816101000a81549073ffffffffffffffffffffffffffffffffffffffff0219169055506001016200028b565b5090565b90565b6126f780620002da6000396000f300608060405260043610610112576000357c0100000000000000000000000000000000000000000000000000000000900463ffffffff168063010c5c971461011d578063110466ed146101785780631b9265b8146101a7578063203bc1a5146101be578063230244081461022a578063241a53cb146102605780632d15cc041461030b57806336cee484146103a35780633cc0be9c146103ba57806343df72dc146104375780634f253f6e1461047857806376d04520146105085780638c85b513146105cf578063994de45314610696578063b27b4067146106c1578063ba1befa814610788578063c7ba5018146107b3578063cd905dff1461082a578063d8f73ca514610859578063f53b6d6514610884575b61011b336108df565b005b34801561012957600080fd5b5061015e600480360381019080803573ffffffffffffffffffffffffffffffffffffffff169060200190929190505050610b0c565b604051808215151515815260200191505060405180910390f35b34801561018457600080fd5b506101a5600480360381019080803515159060200190929190505050610b65565b005b3480156101b357600080fd5b506101bc610c46565b005b3480156101ca57600080fd5b506101d3610c48565b6040518080602001828103825283818151815260200191508051906020019060200280838360005b838110156102165780820151818401526020810190506101fb565b505050509050019250505060405180910390f35b61025e600480360381019080803573ffffffffffffffffffffffffffffffffffffffff1690602001909291905050506108df565b005b34801561026c57600080fd5b506102f1600480360381019080803573ffffffffffffffffffffffffffffffffffffffff169060200190929190803590602001908201803590602001908080601f016020809104026020016040519081016040528093929190818152602001838380828437820191505050505050919291929080359060200190929190505050610ca0565b604051808215151515815260200191505060405180910390f35b34801561031757600080fd5b5061034c600480360381019080803573ffffffffffffffffffffffffffffffffffffffff169060200190929190505050610ce6565b6040518080602001828103825283818151815260200191508051906020019060200280838360005b8381101561038f578082015181840152602081019050610374565b505050509050019250505060405180910390f35b3480156103af57600080fd5b506103b8610db6565b005b3480156103c657600080fd5b5061041d600480360381019080803573ffffffffffffffffffffffffffffffffffffffff16906020019092919080359060200190820180359060200191909192939192939080359060200190929190505050610db8565b604051808215151515815260200191505060405180910390f35b34801561044357600080fd5b5061046260048036038101908080359060200190929190505050611139565b6040518082815260200191505060405180910390f35b6104ee600480360381019080803573ffffffffffffffffffffffffffffffffffffffff16906020019092919080359060200190820180359060200191909192939192939080359060200190929190803573ffffffffffffffffffffffffffffffffffffffff169060200190929190505050611159565b604051808215151515815260200191505060405180910390f35b34801561051457600080fd5b506105b9600480360381019080803573ffffffffffffffffffffffffffffffffffffffff169060200190929190803590602001908201803590602001908080601f0160208091040260200160405190810160405280939291908181526020018383808284378201915050505050509192919290803573ffffffffffffffffffffffffffffffffffffffff169060200190929190803590602001909291905050506115bc565b6040518082815260200191505060405180910390f35b3480156105db57600080fd5b50610680600480360381019080803573ffffffffffffffffffffffffffffffffffffffff169060200190929190803590602001908201803590602001908080601f0160208091040260200160405190810160405280939291908181526020018383808284378201915050505050509192919290803573ffffffffffffffffffffffffffffffffffffffff169060200190929190803590602001909291905050506117fc565b6040518082815260200191505060405180910390f35b3480156106a257600080fd5b506106ab611a3c565b6040518082815260200191505060405180910390f35b3480156106cd57600080fd5b5061076e600480360381019080803590602001908201803590602001908080601f0160208091040260200160405190810160405280939291908181526020018383808284378201915050505050509192919290803590602001908201803590602001908080601f0160208091040260200160405190810160405280939291908181526020018383808284378201915050505050509192919290505050611a46565b604051808215151515815260200191505060405180910390f35b34801561079457600080fd5b5061079d611b1f565b6040518082815260200191505060405180910390f35b3480156107bf57600080fd5b50610814600480360381019080803573ffffffffffffffffffffffffffffffffffffffff169060200190929190803573ffffffffffffffffffffffffffffffffffffffff169060200190929190505050611b29565b6040518082815260200191505060405180910390f35b34801561083657600080fd5b5061083f61233b565b604051808215151515815260200191505060405180910390f35b34801561086557600080fd5b5061086e612351565b6040518082815260200191505060405180910390f35b34801561089057600080fd5b506108c5600480360381019080803573ffffffffffffffffffffffffffffffffffffffff16906020019092919050505061235d565b604051808215151515815260200191505060405180910390f35b600060149054906101000a900460ff161515610989576040517f08c379a00000000000000000000000000000000000000000000000000000000081526004018080602001828103825260258152602001807f436f6e74726163742069732063757272656e746c79206e6f74206f706572617481526020017f696f6e616c00000000000000000000000000000000000000000000000000000081525060400191505060405180910390fd5b8061099381610b0c565b1515610a2d576040517f08c379a00000000000000000000000000000000000000000000000000000000081526004018080602001828103825260268152602001807f566f746572206e6f742066726f6d2072656769737465726564206169726c696e81526020017f6520283c3429000000000000000000000000000000000000000000000000000081525060400191505060405180910390fd5b678ac7230489e800003410151515610aad576040517f08c379a00000000000000000000000000000000000000000000000000000000081526004018080602001828103825260138152602001807f4e6f742073756666696369656e742066756e640000000000000000000000000081525060200191505060405180910390fd5b6001600260008473ffffffffffffffffffffffffffffffffffffffff1673ffffffffffffffffffffffffffffffffffffffff16815260200190815260200160002060000160156101000a81548160ff0219169083151502179055505050565b6000600260008373ffffffffffffffffffffffffffffffffffffffff1673ffffffffffffffffffffffffffffffffffffffff16815260200190815260200160002060000160149054906101000a900460ff169050919050565b6000809054906101000a900473ffffffffffffffffffffffffffffffffffffffff1673ffffffffffffffffffffffffffffffffffffffff163373ffffffffffffffffffffffffffffffffffffffff16141515610c29576040517f08c379a000000000000000000000000000000000000000000000000000000000815260040180806020018281038252601c8152602001807f43616c6c6572206973206e6f7420636f6e7472616374206f776e65720000000081525060200191505060405180910390fd5b80600060146101000a81548160ff02191690831515021790555050565b565b60606007805480602002602001604051908101604052809291908181526020018280548015610c9657602002820191906000526020600020905b815481526020019060010190808311610c82575b5050505050905090565b600080610cae8585856123b6565b905060046000826000191660001916815260200190815260200160002060040160009054906101000a900460ff169150509392505050565b6060600260008373ffffffffffffffffffffffffffffffffffffffff1673ffffffffffffffffffffffffffffffffffffffff168152602001908152602001600020600101805480602002602001604051908101604052809291908181526020018280548015610daa57602002820191906000526020600020905b8160009054906101000a900473ffffffffffffffffffffffffffffffffffffffff1673ffffffffffffffffffffffffffffffffffffffff1681526020019060010190808311610d60575b50505050509050919050565b565b600080600060149054906101000a900460ff161515610e65576040517f08c379a00000000000000000000000000000000000000000000000000000000081526004018080602001828103825260258152602001807f436f6e74726163742069732063757272656e746c79206e6f74206f706572617481526020017f696f6e616c00000000000000000000000000000000000000000000000000000081525060400191505060405180910390fd5b85600260008273ffffffffffffffffffffffffffffffffffffffff1673ffffffffffffffffffffffffffffffffffffffff16815260200190815260200160002060000160149054906101000a900460ff168015610f0e5750600260008273ffffffffffffffffffffffffffffffffffffffff1673ffffffffffffffffffffffffffffffffffffffff16815260200190815260200160002060000160159054906101000a900460ff165b1515610fa8576040517f08c379a000000000000000000000000000000000000000000000000000000000815260040180806020018281038252602b8152602001807f6169726c696e65206973206e6f74207265676973746572206f722066756c6c7981526020017f2066756e6465642079657400000000000000000000000000000000000000000081525060400191505060405180910390fd5b610fe58787878080601f016020809104026020016040519081016040528093929190818152602001838380828437820191505050505050866123b6565b915060a060405190810160405280836000191681526020018873ffffffffffffffffffffffffffffffffffffffff16815260200187878080601f0160208091040260200160405190810160405280939291908181526020018383808284378201915050505050508152602001858152602001600115158152506004600084600019166000191681526020019081526020016000206000820151816000019060001916905560208201518160010160006101000a81548173ffffffffffffffffffffffffffffffffffffffff021916908373ffffffffffffffffffffffffffffffffffffffff16021790555060408201518160020190805190602001906110ec929190612559565b506060820151816003015560808201518160040160006101000a81548160ff0219169083151502179055509050506001600360008282540192505081905550600192505050949350505050565b600060066000838152602001908152602001600020600501549050919050565b60008060008060149054906101000a900460ff161515611207576040517f08c379a00000000000000000000000000000000000000000000000000000000081526004018080602001828103825260258152602001807f436f6e74726163742069732063757272656e746c79206e6f74206f706572617481526020017f696f6e616c00000000000000000000000000000000000000000000000000000081525060400191505060405180910390fd5b87600260008273ffffffffffffffffffffffffffffffffffffffff1673ffffffffffffffffffffffffffffffffffffffff16815260200190815260200160002060000160149054906101000a900460ff1680156112b05750600260008273ffffffffffffffffffffffffffffffffffffffff1673ffffffffffffffffffffffffffffffffffffffff16815260200190815260200160002060000160159054906101000a900460ff165b151561134a576040517f08c379a000000000000000000000000000000000000000000000000000000000815260040180806020018281038252602b8152602001807f6169726c696e65206973206e6f74207265676973746572206f722066756c6c7981526020017f2066756e6465642079657400000000000000000000000000000000000000000081525060400191505060405180910390fd5b8888888080601f0160208091040260200160405190810160405280939291908181526020018383808284378201915050505050508761138a838383610ca0565b15156113fe576040517f08c379a000000000000000000000000000000000000000000000000000000000815260040180806020018281038252601a8152602001807f666c69676874206973206e6f742072656769737465722079657400000000000081525060200191505060405180910390fd5b61143b8c8c8c8080601f0160208091040260200160405190810160405280939291908181526020018383808284378201915050505050508b6123b6565b9550600554945060c0604051908101604052808681526020018d73ffffffffffffffffffffffffffffffffffffffff168152602001876000191681526020018973ffffffffffffffffffffffffffffffffffffffff1681526020013481526020016001815250600660008781526020019081526020016000206000820151816000015560208201518160010160006101000a81548173ffffffffffffffffffffffffffffffffffffffff021916908373ffffffffffffffffffffffffffffffffffffffff1602179055506040820151816002019060001916905560608201518160030160006101000a81548173ffffffffffffffffffffffffffffffffffffffff021916908373ffffffffffffffffffffffffffffffffffffffff1602179055506080820151816004015560a082015181600501559050506007859080600181540180825580915050906001820390600052602060002001600090919290919091505550600185016005819055506001965050505050505095945050505050565b6000606060006115ca610c48565b9150600090505b81518160ff1610156117ed578673ffffffffffffffffffffffffffffffffffffffff16600660008360ff16815260200190815260200160002060010160009054906101000a900473ffffffffffffffffffffffffffffffffffffffff1673ffffffffffffffffffffffffffffffffffffffff16148015611726575061172560046000600660008560ff16815260200190815260200160002060020154600019166000191681526020019081526020016000206002018054600181600116156101000203166002900480601f01602080910402602001604051908101604052809291908181526020018280546001816001161561010002031660029004801561171a5780601f106116ef5761010080835404028352916020019161171a565b820191906000526020600020905b8154815290600101906020018083116116fd57829003601f168201915b505050505087611a46565b5b801561179657508473ffffffffffffffffffffffffffffffffffffffff16600660008360ff16815260200190815260200160002060030160009054906101000a900473ffffffffffffffffffffffffffffffffffffffff1673ffffffffffffffffffffffffffffffffffffffff16145b80156117ba575083600660008360ff16815260200190815260200160002060040154145b156117e057600660008260ff1681526020019081526020016000206004015492506117f2565b80806001019150506115d1565b600092505b5050949350505050565b60006060600061180a610c48565b9150600090505b81518160ff161015611a2d578673ffffffffffffffffffffffffffffffffffffffff16600660008360ff16815260200190815260200160002060010160009054906101000a900473ffffffffffffffffffffffffffffffffffffffff1673ffffffffffffffffffffffffffffffffffffffff16148015611966575061196560046000600660008560ff16815260200190815260200160002060020154600019166000191681526020019081526020016000206002018054600181600116156101000203166002900480601f01602080910402602001604051908101604052809291908181526020018280546001816001161561010002031660029004801561195a5780601f1061192f5761010080835404028352916020019161195a565b820191906000526020600020905b81548152906001019060200180831161193d57829003601f168201915b505050505087611a46565b5b80156119d657508473ffffffffffffffffffffffffffffffffffffffff16600660008360ff16815260200190815260200160002060030160009054906101000a900473ffffffffffffffffffffffffffffffffffffffff1673ffffffffffffffffffffffffffffffffffffffff16145b80156119fa575083600660008360ff16815260200190815260200160002060040154145b15611a2057600660008260ff168152602001908152602001600020600501549250611a32565b8080600101915050611811565b600092505b5050949350505050565b6000600154905090565b6000816040518082805190602001908083835b602083101515611a7e5780518252602082019150602081019050602083039250611a59565b6001836020036101000a038019825116818451168082178552505050505050905001915050604051809103902060001916836040518082805190602001908083835b602083101515611ae55780518252602082019150602081019050602083039250611ac0565b6001836020036101000a03801982511681845116808217855250505050505090500191505060405180910390206000191614905092915050565b6000600354905090565b600080600060149054906101000a900460ff161515611bd6576040517f08c379a00000000000000000000000000000000000000000000000000000000081526004018080602001828103825260258152602001807f436f6e74726163742069732063757272656e746c79206e6f74206f706572617481526020017f696f6e616c00000000000000000000000000000000000000000000000000000081525060400191505060405180910390fd5b82611be081610b0c565b1515611c7a576040517f08c379a00000000000000000000000000000000000000000000000000000000081526004018080602001828103825260268152602001807f566f746572206e6f742066726f6d2072656769737465726564206169726c696e81526020017f6520283c3429000000000000000000000000000000000000000000000000000081525060400191505060405180910390fd5b600260008673ffffffffffffffffffffffffffffffffffffffff1673ffffffffffffffffffffffffffffffffffffffff16815260200190815260200160002060000160149054906101000a900460ff16151515611d3f576040517f08c379a000000000000000000000000000000000000000000000000000000000815260040180806020018281038252601e8152602001807f4169726c696e6520697320616c726561647920726567697374657265642e000081525060200191505060405180910390fd5b60046001541015611eb5576080604051908101604052808673ffffffffffffffffffffffffffffffffffffffff1681526020016001151581526020016000151581526020016000604051908082528060200260200182016040528015611db45781602001602082028038833980820191505090505b50815250600260008773ffffffffffffffffffffffffffffffffffffffff1673ffffffffffffffffffffffffffffffffffffffff16815260200190815260200160002060008201518160000160006101000a81548173ffffffffffffffffffffffffffffffffffffffff021916908373ffffffffffffffffffffffffffffffffffffffff16021790555060208201518160000160146101000a81548160ff02191690831515021790555060408201518160000160156101000a81548160ff0219169083151502179055506060820151816001019080519060200190611e9a9291906125d9565b50905050600160008154809291906001019190505550612333565b600073ffffffffffffffffffffffffffffffffffffffff16600260008773ffffffffffffffffffffffffffffffffffffffff1673ffffffffffffffffffffffffffffffffffffffff16815260200190815260200160002060000160009054906101000a900473ffffffffffffffffffffffffffffffffffffffff1673ffffffffffffffffffffffffffffffffffffffff1614156120a1576080604051908101604052808673ffffffffffffffffffffffffffffffffffffffff1681526020016000151581526020016000151581526020016000604051908082528060200260200182016040528015611fb65781602001602082028038833980820191505090505b50815250600260008773ffffffffffffffffffffffffffffffffffffffff1673ffffffffffffffffffffffffffffffffffffffff16815260200190815260200160002060008201518160000160006101000a81548173ffffffffffffffffffffffffffffffffffffffff021916908373ffffffffffffffffffffffffffffffffffffffff16021790555060208201518160000160146101000a81548160ff02191690831515021790555060408201518160000160156101000a81548160ff021916908315150217905550606082015181600101908051906020019061209c9291906125d9565b509050505b612171600260008773ffffffffffffffffffffffffffffffffffffffff1673ffffffffffffffffffffffffffffffffffffffff16815260200190815260200160002060010180548060200260200160405190810160405280929190818152602001828054801561216657602002820191906000526020600020905b8160009054906101000a900473ffffffffffffffffffffffffffffffffffffffff1673ffffffffffffffffffffffffffffffffffffffff168152602001906001019080831161211c575b5050505050856124db565b151561221e57600260008673ffffffffffffffffffffffffffffffffffffffff1673ffffffffffffffffffffffffffffffffffffffff1681526020019081526020016000206001018490806001815401808255809150509060018203906000526020600020016000909192909190916101000a81548173ffffffffffffffffffffffffffffffffffffffff021916908373ffffffffffffffffffffffffffffffffffffffff160217905550505b600260015481151561222c57fe5b049150600260008673ffffffffffffffffffffffffffffffffffffffff1673ffffffffffffffffffffffffffffffffffffffff16815260200190815260200160002060010180549050925081600260008773ffffffffffffffffffffffffffffffffffffffff1673ffffffffffffffffffffffffffffffffffffffff168152602001908152602001600020600101805490501115612332576001600081548092919060010191905055506001600260008773ffffffffffffffffffffffffffffffffffffffff1673ffffffffffffffffffffffffffffffffffffffff16815260200190815260200160002060000160146101000a81548160ff0219169083151502179055505b5b505092915050565b60008060149054906101000a900460ff16905090565b678ac7230489e8000081565b6000600260008373ffffffffffffffffffffffffffffffffffffffff1673ffffffffffffffffffffffffffffffffffffffff16815260200190815260200160002060000160159054906101000a900460ff169050919050565b6000838383604051602001808473ffffffffffffffffffffffffffffffffffffffff1673ffffffffffffffffffffffffffffffffffffffff166c0100000000000000000000000002815260140183805190602001908083835b602083101515612434578051825260208201915060208101905060208303925061240f565b6001836020036101000a03801982511681845116808217855250505050505090500182815260200193505050506040516020818303038152906040526040518082805190602001908083835b6020831015156124a55780518252602082019150602081019050602083039250612480565b6001836020036101000a038019825116818451168082178552505050505050905001915050604051809103902090509392505050565b600080600090505b835181101561254d578273ffffffffffffffffffffffffffffffffffffffff16848281518110151561251157fe5b9060200190602002015173ffffffffffffffffffffffffffffffffffffffff1614156125405760019150612552565b80806001019150506124e3565b600091505b5092915050565b828054600181600116156101000203166002900490600052602060002090601f016020900481019282601f1061259a57805160ff19168380011785556125c8565b828001600101855582156125c8579182015b828111156125c75782518255916020019190600101906125ac565b5b5090506125d59190612663565b5090565b828054828255906000526020600020908101928215612652579160200282015b828111156126515782518260006101000a81548173ffffffffffffffffffffffffffffffffffffffff021916908373ffffffffffffffffffffffffffffffffffffffff160217905550916020019190600101906125f9565b5b50905061265f9190612688565b5090565b61268591905b80821115612681576000816000905550600101612669565b5090565b90565b6126c891905b808211156126c457600081816101000a81549073ffffffffffffffffffffffffffffffffffffffff02191690555060010161268e565b5090565b905600a165627a7a723058204842ee7f50b1676035d4a3bc8ccc5ff969839a5395a2a667d5a7bf59190e7a130029",
  "source": "pragma solidity ^0.4.25;\n\nimport \"../node_modules/openzeppelin-solidity/contracts/math/SafeMath.sol\";\n\ncontract FlightSuretyData {\n    using SafeMath for uint256;\n\n    /********************************************************************************************/\n    /*                                       DATA VARIABLES                                     */\n    /********************************************************************************************/\n\n    address private contractOwner;                                      // Account used to deploy contract\n    bool private operational = true;                                    // Blocks all state changes throughout the contract if false\n\n    //address[] private airlines;\n\n    uint256 totalRegisteredAirlines;\n    struct Airline {\n        address airline;\n        bool isRegistered;\n        bool isFunded;\n        address[] voters;\n    }\n    mapping(address => Airline) registeredAirlines; \n\n    uint256 totalRegisteredFlights;\n    struct Flight {\n        bytes32 key;\n        address airline;\n        string flightCode;\n        uint departureTime;\n        bool isRegistered;\n        // uint status;\n        // uint updatedTime;\n    }\n    mapping(bytes32 => Flight) registeredFlights;    \n\n    uint256 totalBoughtInsurance;\n    struct Insurance {\n        uint256 id;\n        address airline;\n        bytes32 flightKey;\n        address insuree;\n        uint256 amount;\n        uint state; // 0 = not found, 1 = new\n    }\n    mapping(uint256 => Insurance) insurances; \n    uint256[] insuranceIDs;    \n\n\n    uint256 public constant AIRLINE_REGISTRATION_FEE = 10 ether;\n\n    /********************************************************************************************/\n    /*                                       EVENT DEFINITIONS                                  */\n    /********************************************************************************************/\n\n\n    /**\n    * @dev Constructor\n    *      The deploying account becomes contractOwner\n    */\n    constructor\n                                (\n                                    address initialAirline\n                                ) \n                                public \n    {\n        contractOwner = msg.sender;\n\n\n        registeredAirlines[initialAirline] = Airline({\n                                        airline: initialAirline,\n                                        isRegistered: true,\n                                        isFunded: false,\n                                        voters: new address[](0x00)\n                                });\n        totalRegisteredAirlines = 1;\n        //airlines.push(initialAirline);\n    }\n\n    /********************************************************************************************/\n    /*                                       FUNCTION MODIFIERS                                 */\n    /********************************************************************************************/\n\n    // Modifiers help avoid duplication of code. They are typically used to validate something\n    // before a function is allowed to be executed.\n\n    /**\n    * @dev Modifier that requires the \"operational\" boolean variable to be \"true\"\n    *      This is used on all state changing functions to pause the contract in \n    *      the event there is an issue that needs to be fixed\n    */\n    modifier requireIsOperational() \n    {\n        require(operational, \"Contract is currently not operational\");\n        _;  // All modifiers require an \"_\" which indicates where the function body will be added\n    }\n\n    modifier requireAirlineOperable(address airline) \n    {\n        require(registeredAirlines[airline].isRegistered && registeredAirlines[airline].isFunded, \"airline is not register or fully funded yet\");\n        _;  \n    }\n\n    modifier requireFlightRegistered(address airline, string flightCode, uint256 timestamp) \n    {\n        require(isFlightRegistered(airline, flightCode, timestamp), \"flight is not register yet\");\n        _;  \n    }\n\n    \n\n    /**\n    * @dev Modifier that requires the \"ContractOwner\" account to be the function caller\n    */\n    modifier requireContractOwner()\n    {\n        require(msg.sender == contractOwner, \"Caller is not contract owner\");\n        _;\n    }\n\n\n    modifier requireFromRegisteredAirlines(address voter)\n    {\n        require(isAirlineRegistered(voter), \"Voter not from registered airline (<4)\");\n        _;\n    }\n\n    /********************************************************************************************/\n    /*                                       UTILITY FUNCTIONS                                  */\n    /********************************************************************************************/\n\n    /**\n    * @dev Get operating status of contract\n    *\n    * @return A bool that is the current operating status\n    */      \n    function isOperational() \n                            public \n                            view \n                            returns(bool) \n    {\n        return operational;\n    }\n\n\n    /**\n    * @dev Sets contract operations on/off\n    *\n    * When operational mode is disabled, all write transactions except for this one will fail\n    */    \n    function setOperatingStatus\n                            (\n                                bool mode\n                            ) \n                            external\n                            requireContractOwner \n    {\n        operational = mode;\n    }\n\n    /********************************************************************************************/\n    /*                                     SMART CONTRACT FUNCTIONS                             */\n    /********************************************************************************************/\n\n    function registerFlight\n                            (\n                                address airline, \n                                string flightCode,\n                                uint256 timestamp\n\n                            )\n                            external\n                            requireIsOperational\n                            requireAirlineOperable(airline)\n                            returns(bool success)\n    {\n        var key = getFlightKey(airline, flightCode, timestamp);\n\n\n        registeredFlights[key] = Flight({\n                                        key: key,\n                                        airline: airline,\n                                        flightCode: flightCode,\n                                        departureTime: timestamp,\n                                        isRegistered: true\n                                });\n        totalRegisteredFlights += 1;\n        success = true;\n\n    }\n\n   /**\n    * @dev Add an airline to the registration queue\n    *      Can only be called from FlightSuretyApp contract\n    *\n    */   \n    function registerAirline\n                            (\n                            address airline,\n                            address voter\n                            )\n                            external\n                            requireIsOperational\n                            requireFromRegisteredAirlines(voter)\n                            returns(uint256 votes)\n\n    {\n\n        require(!registeredAirlines[airline].isRegistered, \"Airline is already registered.\");\n\n        if(totalRegisteredAirlines < 4)\n        {\n            registeredAirlines[airline] = Airline({\n                                            airline: airline,\n                                            isRegistered: true,\n                                            isFunded: false,\n                                            voters: new address[](0x00)\n                                    });\n            totalRegisteredAirlines ++;\n        }\n        else\n        {\n            if (registeredAirlines[airline].airline == address(0x0))\n            {\n                registeredAirlines[airline] = Airline({\n                                                airline: airline,\n                                                isRegistered: false,\n                                                isFunded: false,\n                                                voters: new address[](0x00)\n                                        });\n            }\n            if(!isExistInArray(registeredAirlines[airline].voters, voter))\n            {\n                registeredAirlines[airline].voters.push(voter);\n            }\n            uint treshold = totalRegisteredAirlines / 2;\n            votes = registeredAirlines[airline].voters.length;\n            if(registeredAirlines[airline].voters.length > treshold)\n            {\n                totalRegisteredAirlines ++;\n                registeredAirlines[airline].isRegistered = true;\n            }\n\n        }\n    }\n\n\n   /**\n    * @dev Buy insurance for a flight\n    *\n    */   \n    function buy\n                            (   \n                            address airline,\n                            string flightCode,\n                            uint256 timestamp,\n                            address insuree                          \n                            )\n                            external\n                            payable\n                            requireIsOperational\n                            requireAirlineOperable(airline)\n                            requireFlightRegistered(airline, flightCode, timestamp)\n                            returns(bool success)\n    {\n\n        var flightKey = getFlightKey(airline, flightCode, timestamp);\n\n\n        uint256 insID = totalBoughtInsurance;\n        insurances[insID] = Insurance({\n                                        id: insID,\n                                        airline: airline,\n                                        flightKey: flightKey,\n                                        insuree: insuree,\n                                        amount: msg.value,\n                                        state: 1\n                                });\n        insuranceIDs.push(insID);\n        totalBoughtInsurance = insID + 1;\n        success = true;\n    }\n\n    /**\n     *  @dev Credits payouts to insurees\n    */\n    function creditInsurees\n                                (\n                                )\n                                external\n                                pure\n    {\n    }\n    \n\n    /**\n     *  @dev Transfers eligible payout funds to insuree\n     *\n    */\n    function pay\n                            (\n                            )\n                            external\n                            pure\n    {\n    }\n\n   /**\n    * @dev Initial funding for the insurance. Unless there are too many delayed flights\n    *      resulting in insurance payouts, the contract should be self-sustaining\n    *\n    */   \n    function fund\n                            (  \n                            address airline \n                            )\n                            public\n                            payable\n                            requireIsOperational\n                            requireFromRegisteredAirlines(airline)\n    {\n\n        require(msg.value >= AIRLINE_REGISTRATION_FEE, \"Not sufficient fund\");\n        registeredAirlines[airline].isFunded = true;\n    }\n\n    function getFlightKey\n                        (\n                            address airline,\n                            string memory flight,\n                            uint256 timestamp\n                        )\n                        pure\n                        internal\n                        returns(bytes32) \n    {\n        return keccak256(abi.encodePacked(airline, flight, timestamp));\n    }\n\n    /**\n    * @dev Fallback function for funding smart contract.\n    *\n    */\n    function() \n                            external \n                            payable \n    {\n        fund(msg.sender);\n    }\n\n\n\n    /**\n    * helpers\n    *\n    */\n\n    function isFlightRegistered(address airline, string flightCode, uint256 timestamp) public view returns (bool result) {\n        var key = getFlightKey(airline, flightCode, timestamp);\n        return registeredFlights[key].isRegistered;\n    }\n\n\n    function isAirlineRegistered(address airline) public view returns (bool result) {\n        return registeredAirlines[airline].isRegistered;\n    }\n\n    function isAirlineFunded(address airline) public view returns (bool result) {\n        return registeredAirlines[airline].isFunded;\n    }\n\n    function isExistInArray(address[] targetArray, address searchElement) private view returns (bool result) {\n        for(uint256 i=0; i< targetArray.length; i++)\n        {\n            if (targetArray[i] == searchElement)\n            {\n                return true;\n            }\n        }\n        return false;\n    }\n\n    function getTotalRegisteredAirlines() public view returns (uint256 result) {\n        result = totalRegisteredAirlines;\n    }\n\n    function getTotalRegisteredFlights() public view returns (uint256 result) {\n        result = totalRegisteredFlights;\n    }\n\n    function getVoters(address airline) public view returns (address[] result) {\n        result = registeredAirlines[airline].voters;\n    }\n\n    function getInsuranceState ( address airline, string memory flightCode, address insuree, uint256 amount ) public view returns (uint)\n    {\n        var allIns = getInsuranceIDs();\n        for(uint8 i = 0; i< allIns.length; i++)\n        {\n            if(insurances[i].airline == airline && isEqualString(registeredFlights[insurances[i].flightKey].flightCode, flightCode) && insurances[i].insuree == insuree && insurances[i].amount == amount)\n            {\n                return insurances[i].state;\n            }\n        }\n        return 0;\n    }\n\n    function getInsuranceStateByID ( uint256 insuranceID ) public view returns (uint)\n    {\n        return insurances[insuranceID].state;\n    }\n\n    function getInsuranceAmount ( address airline, string flightCode, address insuree, uint256 amount ) public view returns (uint)\n    {\n        var allIns = getInsuranceIDs();\n        for(uint8 i = 0; i< allIns.length; i++)\n        {\n            if(insurances[i].airline == airline && isEqualString(registeredFlights[insurances[i].flightKey].flightCode, flightCode) && insurances[i].insuree == insuree && insurances[i].amount == amount)\n            {\n                return insurances[i].amount;\n            }\n        }\n        return 0;\n    }\n\n    function getInsuranceIDs ( ) public view returns (uint256[])\n    {\n        return insuranceIDs;\n    }   \n\n    function isEqualString( string a, string b) public view returns (bool)\n    {\n        return keccak256(bytes(a)) == keccak256(bytes(b));\n    }\n\n\n\n}\n\n",
  "sourcePath": "/Users/pongsaks/Udacity/Blockchain/Nanodegree_BlockchainDev/projects/p4_flightsurety/contracts/FlightSuretyData.sol",
  "compiler": {
    "name": "solc",
    "version": "0.4.26+commit.4563c3fc.Emscripten.clang"
  },
  "schemaVersion": "3.0.3",
  "updatedAt": "2021-09-04T07:33:23.019Z",
  "devdoc": {
    "methods": {
      "buy(address,string,uint256,address)": {
        "details": "Buy insurance for a flight    "
      },
      "creditInsurees()": {
        "details": "Credits payouts to insurees"
      },
      "fund(address)": {
        "details": "Initial funding for the insurance. Unless there are too many delayed flights     resulting in insurance payouts, the contract should be self-sustaining    "
      },
      "isOperational()": {
        "details": "Get operating status of contract",
        "return": "A bool that is the current operating status"
      },
      "pay()": {
        "details": "Transfers eligible payout funds to insuree    "
      },
      "registerAirline(address,address)": {
        "details": "Add an airline to the registration queue     Can only be called from FlightSuretyApp contract    "
      },
      "setOperatingStatus(bool)": {
        "details": "Sets contract operations on/off    * When operational mode is disabled, all write transactions except for this one will fail"
      }
    }
  },
  "userdoc": {
    "methods": {
      "isFlightRegistered(address,string,uint256)": {
        "notice": "helpers    "
      },
      "registerFlight(address,string,uint256)": {
        "notice": "*****************************************************************************************"
      }
    }
  }
}