{
  "contractName": "FlightSuretyData",
  "abi": [
    {
      "constant": true,
      "inputs": [],
      "name": "AIRLINE_REGISTRATION_FEE",
      "outputs": [
        {
          "name": "",
          "type": "uint256"
        }
      ],
      "payable": false,
      "stateMutability": "view",
      "type": "function",
      "signature": "0xd8f73ca5"
    },
    {
      "inputs": [
        {
          "name": "initialAirline",
          "type": "address"
        }
      ],
      "payable": false,
      "stateMutability": "nonpayable",
      "type": "constructor",
      "signature": "constructor"
    },
    {
      "payable": true,
      "stateMutability": "payable",
      "type": "fallback"
    },
    {
      "constant": true,
      "inputs": [],
      "name": "isOperational",
      "outputs": [
        {
          "name": "",
          "type": "bool"
        }
      ],
      "payable": false,
      "stateMutability": "view",
      "type": "function",
      "signature": "0xcd905dff"
    },
    {
      "constant": false,
      "inputs": [
        {
          "name": "mode",
          "type": "bool"
        }
      ],
      "name": "setOperatingStatus",
      "outputs": [],
      "payable": false,
      "stateMutability": "nonpayable",
      "type": "function",
      "signature": "0x110466ed"
    },
    {
      "constant": false,
      "inputs": [
        {
          "name": "airline",
          "type": "address"
        },
        {
          "name": "voter",
          "type": "address"
        }
      ],
      "name": "registerAirline",
      "outputs": [
        {
          "name": "votes",
          "type": "uint256"
        }
      ],
      "payable": false,
      "stateMutability": "nonpayable",
      "type": "function",
      "signature": "0xc7ba5018"
    },
    {
      "constant": false,
      "inputs": [],
      "name": "buy",
      "outputs": [],
      "payable": true,
      "stateMutability": "payable",
      "type": "function",
      "signature": "0xa6f2ae3a"
    },
    {
      "constant": true,
      "inputs": [],
      "name": "creditInsurees",
      "outputs": [],
      "payable": false,
      "stateMutability": "pure",
      "type": "function",
      "signature": "0x36cee484"
    },
    {
      "constant": true,
      "inputs": [],
      "name": "pay",
      "outputs": [],
      "payable": false,
      "stateMutability": "pure",
      "type": "function",
      "signature": "0x1b9265b8"
    },
    {
      "constant": false,
      "inputs": [
        {
          "name": "airline",
          "type": "address"
        }
      ],
      "name": "fund",
      "outputs": [],
      "payable": true,
      "stateMutability": "payable",
      "type": "function",
      "signature": "0x23024408"
    },
    {
      "constant": true,
      "inputs": [
        {
          "name": "airline",
          "type": "address"
        }
      ],
      "name": "isAirlineRegistered",
      "outputs": [
        {
          "name": "result",
          "type": "bool"
        }
      ],
      "payable": false,
      "stateMutability": "view",
      "type": "function",
      "signature": "0x010c5c97"
    },
    {
      "constant": true,
      "inputs": [],
      "name": "getTotalRegisteredAirlines",
      "outputs": [
        {
          "name": "result",
          "type": "uint256"
        }
      ],
      "payable": false,
      "stateMutability": "view",
      "type": "function",
      "signature": "0x994de453"
    },
    {
      "constant": true,
      "inputs": [
        {
          "name": "airline",
          "type": "address"
        }
      ],
      "name": "getVoters",
      "outputs": [
        {
          "name": "result",
          "type": "address[]"
        }
      ],
      "payable": false,
      "stateMutability": "view",
      "type": "function",
      "signature": "0x2d15cc04"
    }
  ],
  "bytecode": "0x60806040526001600060146101000a81548160ff02191690831515021790555034801561002b57600080fd5b506040516020806200140583398101806040528101908080519060200190929190505050336000806101000a81548173ffffffffffffffffffffffffffffffffffffffff021916908373ffffffffffffffffffffffffffffffffffffffff1602179055506080604051908101604052808273ffffffffffffffffffffffffffffffffffffffff16815260200160011515815260200160001515815260200160006040519080825280602002602001820160405280156100f95781602001602082028038833980820191505090505b50815250600260008373ffffffffffffffffffffffffffffffffffffffff1673ffffffffffffffffffffffffffffffffffffffff16815260200190815260200160002060008201518160000160006101000a81548173ffffffffffffffffffffffffffffffffffffffff021916908373ffffffffffffffffffffffffffffffffffffffff16021790555060208201518160000160146101000a81548160ff02191690831515021790555060408201518160000160156101000a81548160ff02191690831515021790555060608201518160010190805190602001906101df9291906101f0565b5090505060018081905550506102bd565b828054828255906000526020600020908101928215610269579160200282015b828111156102685782518260006101000a81548173ffffffffffffffffffffffffffffffffffffffff021916908373ffffffffffffffffffffffffffffffffffffffff16021790555091602001919060010190610210565b5b509050610276919061027a565b5090565b6102ba91905b808211156102b657600081816101000a81549073ffffffffffffffffffffffffffffffffffffffff021916905550600101610280565b5090565b90565b61113880620002cd6000396000f3006080604052600436106100af576000357c0100000000000000000000000000000000000000000000000000000000900463ffffffff168063010c5c97146100ba578063110466ed146101155780631b9265b814610144578063230244081461015b5780632d15cc041461019157806336cee48414610229578063994de45314610240578063a6f2ae3a1461026b578063c7ba501814610275578063cd905dff146102ec578063d8f73ca51461031b575b6100b833610346565b005b3480156100c657600080fd5b506100fb600480360381019080803573ffffffffffffffffffffffffffffffffffffffff169060200190929190505050610573565b604051808215151515815260200191505060405180910390f35b34801561012157600080fd5b506101426004803603810190808035151590602001909291905050506105cc565b005b34801561015057600080fd5b506101596106ad565b005b61018f600480360381019080803573ffffffffffffffffffffffffffffffffffffffff169060200190929190505050610346565b005b34801561019d57600080fd5b506101d2600480360381019080803573ffffffffffffffffffffffffffffffffffffffff1690602001909291905050506106af565b6040518080602001828103825283818151815260200191508051906020019060200280838360005b838110156102155780820151818401526020810190506101fa565b505050509050019250505060405180910390f35b34801561023557600080fd5b5061023e61077f565b005b34801561024c57600080fd5b50610255610781565b6040518082815260200191505060405180910390f35b61027361078b565b005b34801561028157600080fd5b506102d6600480360381019080803573ffffffffffffffffffffffffffffffffffffffff169060200190929190803573ffffffffffffffffffffffffffffffffffffffff16906020019092919050505061078d565b6040518082815260200191505060405180910390f35b3480156102f857600080fd5b50610301610f9f565b604051808215151515815260200191505060405180910390f35b34801561032757600080fd5b50610330610fb5565b6040518082815260200191505060405180910390f35b600060149054906101000a900460ff1615156103f0576040517f08c379a00000000000000000000000000000000000000000000000000000000081526004018080602001828103825260258152602001807f436f6e74726163742069732063757272656e746c79206e6f74206f706572617481526020017f696f6e616c00000000000000000000000000000000000000000000000000000081525060400191505060405180910390fd5b806103fa81610573565b1515610494576040517f08c379a00000000000000000000000000000000000000000000000000000000081526004018080602001828103825260268152602001807f566f746572206e6f742066726f6d2072656769737465726564206169726c696e81526020017f6520283c3429000000000000000000000000000000000000000000000000000081525060400191505060405180910390fd5b678ac7230489e800003410151515610514576040517f08c379a00000000000000000000000000000000000000000000000000000000081526004018080602001828103825260138152602001807f4e6f742073756666696369656e742066756e640000000000000000000000000081525060200191505060405180910390fd5b6001600260008473ffffffffffffffffffffffffffffffffffffffff1673ffffffffffffffffffffffffffffffffffffffff16815260200190815260200160002060000160156101000a81548160ff0219169083151502179055505050565b6000600260008373ffffffffffffffffffffffffffffffffffffffff1673ffffffffffffffffffffffffffffffffffffffff16815260200190815260200160002060000160149054906101000a900460ff169050919050565b6000809054906101000a900473ffffffffffffffffffffffffffffffffffffffff1673ffffffffffffffffffffffffffffffffffffffff163373ffffffffffffffffffffffffffffffffffffffff16141515610690576040517f08c379a000000000000000000000000000000000000000000000000000000000815260040180806020018281038252601c8152602001807f43616c6c6572206973206e6f7420636f6e7472616374206f776e65720000000081525060200191505060405180910390fd5b80600060146101000a81548160ff02191690831515021790555050565b565b6060600260008373ffffffffffffffffffffffffffffffffffffffff1673ffffffffffffffffffffffffffffffffffffffff16815260200190815260200160002060010180548060200260200160405190810160405280929190818152602001828054801561077357602002820191906000526020600020905b8160009054906101000a900473ffffffffffffffffffffffffffffffffffffffff1673ffffffffffffffffffffffffffffffffffffffff1681526020019060010190808311610729575b50505050509050919050565b565b6000600154905090565b565b600080600060149054906101000a900460ff16151561083a576040517f08c379a00000000000000000000000000000000000000000000000000000000081526004018080602001828103825260258152602001807f436f6e74726163742069732063757272656e746c79206e6f74206f706572617481526020017f696f6e616c00000000000000000000000000000000000000000000000000000081525060400191505060405180910390fd5b8261084481610573565b15156108de576040517f08c379a00000000000000000000000000000000000000000000000000000000081526004018080602001828103825260268152602001807f566f746572206e6f742066726f6d2072656769737465726564206169726c696e81526020017f6520283c3429000000000000000000000000000000000000000000000000000081525060400191505060405180910390fd5b600260008673ffffffffffffffffffffffffffffffffffffffff1673ffffffffffffffffffffffffffffffffffffffff16815260200190815260200160002060000160149054906101000a900460ff161515156109a3576040517f08c379a000000000000000000000000000000000000000000000000000000000815260040180806020018281038252601e8152602001807f4169726c696e6520697320616c726561647920726567697374657265642e000081525060200191505060405180910390fd5b60046001541015610b19576080604051908101604052808673ffffffffffffffffffffffffffffffffffffffff1681526020016001151581526020016000151581526020016000604051908082528060200260200182016040528015610a185781602001602082028038833980820191505090505b50815250600260008773ffffffffffffffffffffffffffffffffffffffff1673ffffffffffffffffffffffffffffffffffffffff16815260200190815260200160002060008201518160000160006101000a81548173ffffffffffffffffffffffffffffffffffffffff021916908373ffffffffffffffffffffffffffffffffffffffff16021790555060208201518160000160146101000a81548160ff02191690831515021790555060408201518160000160156101000a81548160ff0219169083151502179055506060820151816001019080519060200190610afe92919061103f565b50905050600160008154809291906001019190505550610f97565b600073ffffffffffffffffffffffffffffffffffffffff16600260008773ffffffffffffffffffffffffffffffffffffffff1673ffffffffffffffffffffffffffffffffffffffff16815260200190815260200160002060000160009054906101000a900473ffffffffffffffffffffffffffffffffffffffff1673ffffffffffffffffffffffffffffffffffffffff161415610d05576080604051908101604052808673ffffffffffffffffffffffffffffffffffffffff1681526020016000151581526020016000151581526020016000604051908082528060200260200182016040528015610c1a5781602001602082028038833980820191505090505b50815250600260008773ffffffffffffffffffffffffffffffffffffffff1673ffffffffffffffffffffffffffffffffffffffff16815260200190815260200160002060008201518160000160006101000a81548173ffffffffffffffffffffffffffffffffffffffff021916908373ffffffffffffffffffffffffffffffffffffffff16021790555060208201518160000160146101000a81548160ff02191690831515021790555060408201518160000160156101000a81548160ff0219169083151502179055506060820151816001019080519060200190610d0092919061103f565b509050505b610dd5600260008773ffffffffffffffffffffffffffffffffffffffff1673ffffffffffffffffffffffffffffffffffffffff168152602001908152602001600020600101805480602002602001604051908101604052809291908181526020018280548015610dca57602002820191906000526020600020905b8160009054906101000a900473ffffffffffffffffffffffffffffffffffffffff1673ffffffffffffffffffffffffffffffffffffffff1681526020019060010190808311610d80575b505050505085610fc1565b1515610e8257600260008673ffffffffffffffffffffffffffffffffffffffff1673ffffffffffffffffffffffffffffffffffffffff1681526020019081526020016000206001018490806001815401808255809150509060018203906000526020600020016000909192909190916101000a81548173ffffffffffffffffffffffffffffffffffffffff021916908373ffffffffffffffffffffffffffffffffffffffff160217905550505b6002600154811515610e9057fe5b049150600260008673ffffffffffffffffffffffffffffffffffffffff1673ffffffffffffffffffffffffffffffffffffffff16815260200190815260200160002060010180549050925081600260008773ffffffffffffffffffffffffffffffffffffffff1673ffffffffffffffffffffffffffffffffffffffff168152602001908152602001600020600101805490501115610f96576001600081548092919060010191905055506001600260008773ffffffffffffffffffffffffffffffffffffffff1673ffffffffffffffffffffffffffffffffffffffff16815260200190815260200160002060000160146101000a81548160ff0219169083151502179055505b5b505092915050565b60008060149054906101000a900460ff16905090565b678ac7230489e8000081565b600080600090505b8351811015611033578273ffffffffffffffffffffffffffffffffffffffff168482815181101515610ff757fe5b9060200190602002015173ffffffffffffffffffffffffffffffffffffffff1614156110265760019150611038565b8080600101915050610fc9565b600091505b5092915050565b8280548282559060005260206000209081019282156110b8579160200282015b828111156110b75782518260006101000a81548173ffffffffffffffffffffffffffffffffffffffff021916908373ffffffffffffffffffffffffffffffffffffffff1602179055509160200191906001019061105f565b5b5090506110c591906110c9565b5090565b61110991905b8082111561110557600081816101000a81549073ffffffffffffffffffffffffffffffffffffffff0219169055506001016110cf565b5090565b905600a165627a7a72305820f81144c846e81e5c46636151a020b6ea840733c71876e65d040ab76881ae16d10029",
  "source": "pragma solidity ^0.4.25;\n\nimport \"../node_modules/openzeppelin-solidity/contracts/math/SafeMath.sol\";\n\ncontract FlightSuretyData {\n    using SafeMath for uint256;\n\n    /********************************************************************************************/\n    /*                                       DATA VARIABLES                                     */\n    /********************************************************************************************/\n\n    address private contractOwner;                                      // Account used to deploy contract\n    bool private operational = true;                                    // Blocks all state changes throughout the contract if false\n\n    //address[] private airlines;\n\n    uint256 totalRegisteredAirlines;\n    struct Airline {\n        address airline;\n        bool isRegistered;\n        bool isFunded;\n        address[] voters;\n    }\n    mapping(address => Airline) registeredAirlines;      \n\n\n    uint256 public constant AIRLINE_REGISTRATION_FEE = 10 ether;\n\n    /********************************************************************************************/\n    /*                                       EVENT DEFINITIONS                                  */\n    /********************************************************************************************/\n\n\n    /**\n    * @dev Constructor\n    *      The deploying account becomes contractOwner\n    */\n    constructor\n                                (\n                                    address initialAirline\n                                ) \n                                public \n    {\n        contractOwner = msg.sender;\n\n\n        registeredAirlines[initialAirline] = Airline({\n                                        airline: initialAirline,\n                                        isRegistered: true,\n                                        isFunded: false,\n                                        voters: new address[](0x00)\n                                });\n        totalRegisteredAirlines = 1;\n        //airlines.push(initialAirline);\n    }\n\n    /********************************************************************************************/\n    /*                                       FUNCTION MODIFIERS                                 */\n    /********************************************************************************************/\n\n    // Modifiers help avoid duplication of code. They are typically used to validate something\n    // before a function is allowed to be executed.\n\n    /**\n    * @dev Modifier that requires the \"operational\" boolean variable to be \"true\"\n    *      This is used on all state changing functions to pause the contract in \n    *      the event there is an issue that needs to be fixed\n    */\n    modifier requireIsOperational() \n    {\n        require(operational, \"Contract is currently not operational\");\n        _;  // All modifiers require an \"_\" which indicates where the function body will be added\n    }\n\n    /**\n    * @dev Modifier that requires the \"ContractOwner\" account to be the function caller\n    */\n    modifier requireContractOwner()\n    {\n        require(msg.sender == contractOwner, \"Caller is not contract owner\");\n        _;\n    }\n\n\n    modifier requireFromRegisteredAirlines(address voter)\n    {\n        require(isAirlineRegistered(voter), \"Voter not from registered airline (<4)\");\n        _;\n    }\n\n    /********************************************************************************************/\n    /*                                       UTILITY FUNCTIONS                                  */\n    /********************************************************************************************/\n\n    /**\n    * @dev Get operating status of contract\n    *\n    * @return A bool that is the current operating status\n    */      \n    function isOperational() \n                            public \n                            view \n                            returns(bool) \n    {\n        return operational;\n    }\n\n\n    /**\n    * @dev Sets contract operations on/off\n    *\n    * When operational mode is disabled, all write transactions except for this one will fail\n    */    \n    function setOperatingStatus\n                            (\n                                bool mode\n                            ) \n                            external\n                            requireContractOwner \n    {\n        operational = mode;\n    }\n\n    /********************************************************************************************/\n    /*                                     SMART CONTRACT FUNCTIONS                             */\n    /********************************************************************************************/\n\n   /**\n    * @dev Add an airline to the registration queue\n    *      Can only be called from FlightSuretyApp contract\n    *\n    */   \n    function registerAirline\n                            (\n                            address airline,\n                            address voter\n                            )\n                            external\n                            requireIsOperational\n                            requireFromRegisteredAirlines(voter)\n                            returns(uint256 votes)\n\n    {\n\n        require(!registeredAirlines[airline].isRegistered, \"Airline is already registered.\");\n\n        if(totalRegisteredAirlines < 4)\n        {\n            registeredAirlines[airline] = Airline({\n                                            airline: airline,\n                                            isRegistered: true,\n                                            isFunded: false,\n                                            voters: new address[](0x00)\n                                    });\n            totalRegisteredAirlines ++;\n        }\n        else\n        {\n            if (registeredAirlines[airline].airline == address(0x0))\n            {\n                registeredAirlines[airline] = Airline({\n                                                airline: airline,\n                                                isRegistered: false,\n                                                isFunded: false,\n                                                voters: new address[](0x00)\n                                        });\n            }\n            if(!isExistInArray(registeredAirlines[airline].voters, voter))\n            {\n                registeredAirlines[airline].voters.push(voter);\n            }\n            uint treshold = totalRegisteredAirlines / 2;\n            votes = registeredAirlines[airline].voters.length;\n            if(registeredAirlines[airline].voters.length > treshold)\n            {\n                totalRegisteredAirlines ++;\n                registeredAirlines[airline].isRegistered = true;\n            }\n\n        }\n    }\n\n\n   /**\n    * @dev Buy insurance for a flight\n    *\n    */   \n    function buy\n                            (                             \n                            )\n                            external\n                            payable\n    {\n\n    }\n\n    /**\n     *  @dev Credits payouts to insurees\n    */\n    function creditInsurees\n                                (\n                                )\n                                external\n                                pure\n    {\n    }\n    \n\n    /**\n     *  @dev Transfers eligible payout funds to insuree\n     *\n    */\n    function pay\n                            (\n                            )\n                            external\n                            pure\n    {\n    }\n\n   /**\n    * @dev Initial funding for the insurance. Unless there are too many delayed flights\n    *      resulting in insurance payouts, the contract should be self-sustaining\n    *\n    */   \n    function fund\n                            (  \n                            address airline \n                            )\n                            public\n                            payable\n                            requireIsOperational\n                            requireFromRegisteredAirlines(airline)\n    {\n\n        require(msg.value >= AIRLINE_REGISTRATION_FEE, \"Not sufficient fund\");\n        registeredAirlines[airline].isFunded = true;\n    }\n\n    function getFlightKey\n                        (\n                            address airline,\n                            string memory flight,\n                            uint256 timestamp\n                        )\n                        pure\n                        internal\n                        returns(bytes32) \n    {\n        return keccak256(abi.encodePacked(airline, flight, timestamp));\n    }\n\n    /**\n    * @dev Fallback function for funding smart contract.\n    *\n    */\n    function() \n                            external \n                            payable \n    {\n        fund(msg.sender);\n    }\n\n\n\n    /**\n    * helpers\n    *\n    */\n\n\n    function isAirlineRegistered(address airline) public view returns (bool result) {\n        return registeredAirlines[airline].isRegistered;\n    }\n\n    function isExistInArray(address[] targetArray, address searchElement) private view returns (bool result) {\n        for(uint256 i=0; i< targetArray.length; i++)\n        {\n            if (targetArray[i] == searchElement)\n            {\n                return true;\n            }\n        }\n        return false;\n    }\n\n    function getTotalRegisteredAirlines() public view returns (uint256 result) {\n        result = totalRegisteredAirlines;\n    }\n\n    function getVoters(address airline) public view returns (address[] result) {\n        result = registeredAirlines[airline].voters;\n    }\n\n\n\n}\n\n",
  "sourcePath": "/Users/pongsaks/Udacity/Blockchain/Nanodegree_BlockchainDev/projects/p4_flightsurety/contracts/FlightSuretyData.sol",
  "compiler": {
    "name": "solc",
    "version": "0.4.26+commit.4563c3fc.Emscripten.clang"
  },
  "schemaVersion": "3.0.3",
  "updatedAt": "2021-09-02T16:42:36.619Z",
  "devdoc": {
    "methods": {
      "buy()": {
        "details": "Buy insurance for a flight    "
      },
      "creditInsurees()": {
        "details": "Credits payouts to insurees"
      },
      "fund(address)": {
        "details": "Initial funding for the insurance. Unless there are too many delayed flights     resulting in insurance payouts, the contract should be self-sustaining    "
      },
      "isOperational()": {
        "details": "Get operating status of contract",
        "return": "A bool that is the current operating status"
      },
      "pay()": {
        "details": "Transfers eligible payout funds to insuree    "
      },
      "registerAirline(address,address)": {
        "details": "Add an airline to the registration queue     Can only be called from FlightSuretyApp contract    "
      },
      "setOperatingStatus(bool)": {
        "details": "Sets contract operations on/off    * When operational mode is disabled, all write transactions except for this one will fail"
      }
    }
  },
  "userdoc": {
    "methods": {
      "isAirlineRegistered(address)": {
        "notice": "helpers    "
      }
    }
  }
}