{
  "contractName": "FlightSuretyData",
  "abi": [
    {
      "constant": true,
      "inputs": [],
      "name": "AIRLINE_REGISTRATION_FEE",
      "outputs": [
        {
          "name": "",
          "type": "uint256"
        }
      ],
      "payable": false,
      "stateMutability": "view",
      "type": "function",
      "signature": "0xd8f73ca5"
    },
    {
      "inputs": [
        {
          "name": "initialAirline",
          "type": "address"
        }
      ],
      "payable": false,
      "stateMutability": "nonpayable",
      "type": "constructor",
      "signature": "constructor"
    },
    {
      "payable": true,
      "stateMutability": "payable",
      "type": "fallback"
    },
    {
      "constant": true,
      "inputs": [],
      "name": "isOperational",
      "outputs": [
        {
          "name": "",
          "type": "bool"
        }
      ],
      "payable": false,
      "stateMutability": "view",
      "type": "function",
      "signature": "0xcd905dff"
    },
    {
      "constant": false,
      "inputs": [
        {
          "name": "mode",
          "type": "bool"
        }
      ],
      "name": "setOperatingStatus",
      "outputs": [],
      "payable": false,
      "stateMutability": "nonpayable",
      "type": "function",
      "signature": "0x110466ed"
    },
    {
      "constant": false,
      "inputs": [
        {
          "name": "airline",
          "type": "address"
        },
        {
          "name": "flightCode",
          "type": "string"
        },
        {
          "name": "timestamp",
          "type": "uint256"
        }
      ],
      "name": "registerFlight",
      "outputs": [
        {
          "name": "success",
          "type": "bool"
        }
      ],
      "payable": false,
      "stateMutability": "nonpayable",
      "type": "function",
      "signature": "0x3cc0be9c"
    },
    {
      "constant": false,
      "inputs": [
        {
          "name": "airline",
          "type": "address"
        },
        {
          "name": "voter",
          "type": "address"
        }
      ],
      "name": "registerAirline",
      "outputs": [
        {
          "name": "votes",
          "type": "uint256"
        }
      ],
      "payable": false,
      "stateMutability": "nonpayable",
      "type": "function",
      "signature": "0xc7ba5018"
    },
    {
      "constant": false,
      "inputs": [
        {
          "name": "airline",
          "type": "address"
        },
        {
          "name": "flightCode",
          "type": "string"
        },
        {
          "name": "timestamp",
          "type": "uint256"
        },
        {
          "name": "insuree",
          "type": "address"
        }
      ],
      "name": "buy",
      "outputs": [
        {
          "name": "success",
          "type": "bool"
        }
      ],
      "payable": true,
      "stateMutability": "payable",
      "type": "function",
      "signature": "0x4f253f6e"
    },
    {
      "constant": true,
      "inputs": [],
      "name": "creditInsurees",
      "outputs": [],
      "payable": false,
      "stateMutability": "pure",
      "type": "function",
      "signature": "0x36cee484"
    },
    {
      "constant": true,
      "inputs": [],
      "name": "pay",
      "outputs": [],
      "payable": false,
      "stateMutability": "pure",
      "type": "function",
      "signature": "0x1b9265b8"
    },
    {
      "constant": false,
      "inputs": [
        {
          "name": "airline",
          "type": "address"
        }
      ],
      "name": "fund",
      "outputs": [],
      "payable": true,
      "stateMutability": "payable",
      "type": "function",
      "signature": "0x23024408"
    },
    {
      "constant": true,
      "inputs": [
        {
          "name": "airline",
          "type": "address"
        },
        {
          "name": "flightCode",
          "type": "string"
        },
        {
          "name": "timestamp",
          "type": "uint256"
        }
      ],
      "name": "isFlightRegistered",
      "outputs": [
        {
          "name": "result",
          "type": "bool"
        }
      ],
      "payable": false,
      "stateMutability": "view",
      "type": "function",
      "signature": "0x241a53cb"
    },
    {
      "constant": true,
      "inputs": [
        {
          "name": "airline",
          "type": "address"
        }
      ],
      "name": "isAirlineRegistered",
      "outputs": [
        {
          "name": "result",
          "type": "bool"
        }
      ],
      "payable": false,
      "stateMutability": "view",
      "type": "function",
      "signature": "0x010c5c97"
    },
    {
      "constant": true,
      "inputs": [
        {
          "name": "airline",
          "type": "address"
        }
      ],
      "name": "isAirlineFunded",
      "outputs": [
        {
          "name": "result",
          "type": "bool"
        }
      ],
      "payable": false,
      "stateMutability": "view",
      "type": "function",
      "signature": "0xf53b6d65"
    },
    {
      "constant": true,
      "inputs": [],
      "name": "getTotalRegisteredAirlines",
      "outputs": [
        {
          "name": "result",
          "type": "uint256"
        }
      ],
      "payable": false,
      "stateMutability": "view",
      "type": "function",
      "signature": "0x994de453"
    },
    {
      "constant": true,
      "inputs": [],
      "name": "getTotalRegisteredFlights",
      "outputs": [
        {
          "name": "result",
          "type": "uint256"
        }
      ],
      "payable": false,
      "stateMutability": "view",
      "type": "function",
      "signature": "0xba1befa8"
    },
    {
      "constant": true,
      "inputs": [
        {
          "name": "airline",
          "type": "address"
        }
      ],
      "name": "getVoters",
      "outputs": [
        {
          "name": "result",
          "type": "address[]"
        }
      ],
      "payable": false,
      "stateMutability": "view",
      "type": "function",
      "signature": "0x2d15cc04"
    },
    {
      "constant": true,
      "inputs": [
        {
          "name": "airline",
          "type": "address"
        },
        {
          "name": "flight",
          "type": "string"
        },
        {
          "name": "timestamp",
          "type": "uint256"
        },
        {
          "name": "insuree",
          "type": "address"
        },
        {
          "name": "amount",
          "type": "uint256"
        }
      ],
      "name": "getInsuranceState",
      "outputs": [
        {
          "name": "",
          "type": "uint256"
        }
      ],
      "payable": false,
      "stateMutability": "view",
      "type": "function",
      "signature": "0xffbcc594"
    },
    {
      "constant": true,
      "inputs": [
        {
          "name": "airline",
          "type": "address"
        },
        {
          "name": "flight",
          "type": "string"
        },
        {
          "name": "timestamp",
          "type": "uint256"
        },
        {
          "name": "insuree",
          "type": "address"
        },
        {
          "name": "amount",
          "type": "uint256"
        }
      ],
      "name": "getInsuranceAmount",
      "outputs": [
        {
          "name": "",
          "type": "uint256"
        }
      ],
      "payable": false,
      "stateMutability": "view",
      "type": "function",
      "signature": "0x099ba99d"
    }
  ],
  "bytecode": "0x60806040526001600060146101000a81548160ff0219169083151502179055503480156200002c57600080fd5b506040516020806200243183398101806040528101908080519060200190929190505050336000806101000a81548173ffffffffffffffffffffffffffffffffffffffff021916908373ffffffffffffffffffffffffffffffffffffffff1602179055506080604051908101604052808273ffffffffffffffffffffffffffffffffffffffff1681526020016001151581526020016000151581526020016000604051908082528060200260200182016040528015620000fb5781602001602082028038833980820191505090505b50815250600260008373ffffffffffffffffffffffffffffffffffffffff1673ffffffffffffffffffffffffffffffffffffffff16815260200190815260200160002060008201518160000160006101000a81548173ffffffffffffffffffffffffffffffffffffffff021916908373ffffffffffffffffffffffffffffffffffffffff16021790555060208201518160000160146101000a81548160ff02191690831515021790555060408201518160000160156101000a81548160ff0219169083151502179055506060820151816001019080519060200190620001e3929190620001f5565b509050506001808190555050620002ca565b82805482825590600052602060002090810192821562000271579160200282015b82811115620002705782518260006101000a81548173ffffffffffffffffffffffffffffffffffffffff021916908373ffffffffffffffffffffffffffffffffffffffff1602179055509160200191906001019062000216565b5b50905062000280919062000284565b5090565b620002c791905b80821115620002c357600081816101000a81549073ffffffffffffffffffffffffffffffffffffffff0219169055506001016200028b565b5090565b90565b61215780620002da6000396000f3006080604052600436106100f1576000357c0100000000000000000000000000000000000000000000000000000000900463ffffffff168063010c5c97146100fc578063099ba99d14610157578063110466ed146102285780631b9265b814610257578063230244081461026e578063241a53cb146102a45780632d15cc041461034f57806336cee484146103e75780633cc0be9c146103fe5780634f253f6e1461047b578063994de4531461050b578063ba1befa814610536578063c7ba501814610561578063cd905dff146105d8578063d8f73ca514610607578063f53b6d6514610632578063ffbcc5941461068d575b6100fa3361075e565b005b34801561010857600080fd5b5061013d600480360381019080803573ffffffffffffffffffffffffffffffffffffffff16906020019092919050505061098b565b604051808215151515815260200191505060405180910390f35b34801561016357600080fd5b50610212600480360381019080803573ffffffffffffffffffffffffffffffffffffffff169060200190929190803590602001908201803590602001908080601f016020809104026020016040519081016040528093929190818152602001838380828437820191505050505050919291929080359060200190929190803573ffffffffffffffffffffffffffffffffffffffff169060200190929190803590602001909291905050506109e4565b6040518082815260200191505060405180910390f35b34801561023457600080fd5b50610255600480360381019080803515159060200190929190505050610a21565b005b34801561026357600080fd5b5061026c610b02565b005b6102a2600480360381019080803573ffffffffffffffffffffffffffffffffffffffff16906020019092919050505061075e565b005b3480156102b057600080fd5b50610335600480360381019080803573ffffffffffffffffffffffffffffffffffffffff169060200190929190803590602001908201803590602001908080601f016020809104026020016040519081016040528093929190818152602001838380828437820191505050505050919291929080359060200190929190505050610b04565b604051808215151515815260200191505060405180910390f35b34801561035b57600080fd5b50610390600480360381019080803573ffffffffffffffffffffffffffffffffffffffff169060200190929190505050610b4a565b6040518080602001828103825283818151815260200191508051906020019060200280838360005b838110156103d35780820151818401526020810190506103b8565b505050509050019250505060405180910390f35b3480156103f357600080fd5b506103fc610c1a565b005b34801561040a57600080fd5b50610461600480360381019080803573ffffffffffffffffffffffffffffffffffffffff16906020019092919080359060200190820180359060200191909192939192939080359060200190929190505050610c1c565b604051808215151515815260200191505060405180910390f35b6104f1600480360381019080803573ffffffffffffffffffffffffffffffffffffffff16906020019092919080359060200190820180359060200191909192939192939080359060200190929190803573ffffffffffffffffffffffffffffffffffffffff169060200190929190505050610f9d565b604051808215151515815260200191505060405180910390f35b34801561051757600080fd5b506105206113c6565b6040518082815260200191505060405180910390f35b34801561054257600080fd5b5061054b6113d0565b6040518082815260200191505060405180910390f35b34801561056d57600080fd5b506105c2600480360381019080803573ffffffffffffffffffffffffffffffffffffffff169060200190929190803573ffffffffffffffffffffffffffffffffffffffff1690602001909291905050506113da565b6040518082815260200191505060405180910390f35b3480156105e457600080fd5b506105ed611bec565b604051808215151515815260200191505060405180910390f35b34801561061357600080fd5b5061061c611c02565b6040518082815260200191505060405180910390f35b34801561063e57600080fd5b50610673600480360381019080803573ffffffffffffffffffffffffffffffffffffffff169060200190929190505050611c0e565b604051808215151515815260200191505060405180910390f35b34801561069957600080fd5b50610748600480360381019080803573ffffffffffffffffffffffffffffffffffffffff169060200190929190803590602001908201803590602001908080601f016020809104026020016040519081016040528093929190818152602001838380828437820191505050505050919291929080359060200190929190803573ffffffffffffffffffffffffffffffffffffffff16906020019092919080359060200190929190505050611c67565b6040518082815260200191505060405180910390f35b600060149054906101000a900460ff161515610808576040517f08c379a00000000000000000000000000000000000000000000000000000000081526004018080602001828103825260258152602001807f436f6e74726163742069732063757272656e746c79206e6f74206f706572617481526020017f696f6e616c00000000000000000000000000000000000000000000000000000081525060400191505060405180910390fd5b806108128161098b565b15156108ac576040517f08c379a00000000000000000000000000000000000000000000000000000000081526004018080602001828103825260268152602001807f566f746572206e6f742066726f6d2072656769737465726564206169726c696e81526020017f6520283c3429000000000000000000000000000000000000000000000000000081525060400191505060405180910390fd5b678ac7230489e80000341015151561092c576040517f08c379a00000000000000000000000000000000000000000000000000000000081526004018080602001828103825260138152602001807f4e6f742073756666696369656e742066756e640000000000000000000000000081525060200191505060405180910390fd5b6001600260008473ffffffffffffffffffffffffffffffffffffffff1673ffffffffffffffffffffffffffffffffffffffff16815260200190815260200160002060000160156101000a81548160ff0219169083151502179055505050565b6000600260008373ffffffffffffffffffffffffffffffffffffffff1673ffffffffffffffffffffffffffffffffffffffff16815260200190815260200160002060000160149054906101000a900460ff169050919050565b6000806109f48787878787611ca4565b90506006600082600019166000191681526020019081526020016000206003015491505095945050505050565b6000809054906101000a900473ffffffffffffffffffffffffffffffffffffffff1673ffffffffffffffffffffffffffffffffffffffff163373ffffffffffffffffffffffffffffffffffffffff16141515610ae5576040517f08c379a000000000000000000000000000000000000000000000000000000000815260040180806020018281038252601c8152602001807f43616c6c6572206973206e6f7420636f6e7472616374206f776e65720000000081525060200191505060405180910390fd5b80600060146101000a81548160ff02191690831515021790555050565b565b600080610b12858585611e16565b905060046000826000191660001916815260200190815260200160002060040160009054906101000a900460ff169150509392505050565b6060600260008373ffffffffffffffffffffffffffffffffffffffff1673ffffffffffffffffffffffffffffffffffffffff168152602001908152602001600020600101805480602002602001604051908101604052809291908181526020018280548015610c0e57602002820191906000526020600020905b8160009054906101000a900473ffffffffffffffffffffffffffffffffffffffff1673ffffffffffffffffffffffffffffffffffffffff1681526020019060010190808311610bc4575b50505050509050919050565b565b600080600060149054906101000a900460ff161515610cc9576040517f08c379a00000000000000000000000000000000000000000000000000000000081526004018080602001828103825260258152602001807f436f6e74726163742069732063757272656e746c79206e6f74206f706572617481526020017f696f6e616c00000000000000000000000000000000000000000000000000000081525060400191505060405180910390fd5b85600260008273ffffffffffffffffffffffffffffffffffffffff1673ffffffffffffffffffffffffffffffffffffffff16815260200190815260200160002060000160149054906101000a900460ff168015610d725750600260008273ffffffffffffffffffffffffffffffffffffffff1673ffffffffffffffffffffffffffffffffffffffff16815260200190815260200160002060000160159054906101000a900460ff165b1515610e0c576040517f08c379a000000000000000000000000000000000000000000000000000000000815260040180806020018281038252602b8152602001807f6169726c696e65206973206e6f74207265676973746572206f722066756c6c7981526020017f2066756e6465642079657400000000000000000000000000000000000000000081525060400191505060405180910390fd5b610e498787878080601f01602080910402602001604051908101604052809392919081815260200183838082843782019150505050505086611e16565b915060a060405190810160405280836000191681526020018873ffffffffffffffffffffffffffffffffffffffff16815260200187878080601f0160208091040260200160405190810160405280939291908181526020018383808284378201915050505050508152602001858152602001600115158152506004600084600019166000191681526020019081526020016000206000820151816000019060001916905560208201518160010160006101000a81548173ffffffffffffffffffffffffffffffffffffffff021916908373ffffffffffffffffffffffffffffffffffffffff1602179055506040820151816002019080519060200190610f50929190611fb9565b506060820151816003015560808201518160040160006101000a81548160ff0219169083151502179055509050506001600360008282540192505081905550600192505050949350505050565b60008060008060149054906101000a900460ff16151561104b576040517f08c379a00000000000000000000000000000000000000000000000000000000081526004018080602001828103825260258152602001807f436f6e74726163742069732063757272656e746c79206e6f74206f706572617481526020017f696f6e616c00000000000000000000000000000000000000000000000000000081525060400191505060405180910390fd5b87600260008273ffffffffffffffffffffffffffffffffffffffff1673ffffffffffffffffffffffffffffffffffffffff16815260200190815260200160002060000160149054906101000a900460ff1680156110f45750600260008273ffffffffffffffffffffffffffffffffffffffff1673ffffffffffffffffffffffffffffffffffffffff16815260200190815260200160002060000160159054906101000a900460ff165b151561118e576040517f08c379a000000000000000000000000000000000000000000000000000000000815260040180806020018281038252602b8152602001807f6169726c696e65206973206e6f74207265676973746572206f722066756c6c7981526020017f2066756e6465642079657400000000000000000000000000000000000000000081525060400191505060405180910390fd5b8888888080601f016020809104026020016040519081016040528093929190818152602001838380828437820191505050505050876111ce838383610b04565b1515611242576040517f08c379a000000000000000000000000000000000000000000000000000000000815260040180806020018281038252601a8152602001807f666c69676874206973206e6f742072656769737465722079657400000000000081525060200191505060405180910390fd5b61127f8c8c8c8080601f0160208091040260200160405190810160405280939291908181526020018383808284378201915050505050508b611e16565b95506112c08c8c8c8080601f0160208091040260200160405190810160405280939291908181526020018383808284378201915050505050508b8b34611ca4565b945060a06040519081016040528086600019168152602001876000191681526020018973ffffffffffffffffffffffffffffffffffffffff1681526020013481526020016001815250600660008760001916600019168152602001908152602001600020600082015181600001906000191690556020820151816001019060001916905560408201518160020160006101000a81548173ffffffffffffffffffffffffffffffffffffffff021916908373ffffffffffffffffffffffffffffffffffffffff160217905550606082015181600301556080820151816004015590505060016005600082825401925050819055506001965050505050505095945050505050565b6000600154905090565b6000600354905090565b600080600060149054906101000a900460ff161515611487576040517f08c379a00000000000000000000000000000000000000000000000000000000081526004018080602001828103825260258152602001807f436f6e74726163742069732063757272656e746c79206e6f74206f706572617481526020017f696f6e616c00000000000000000000000000000000000000000000000000000081525060400191505060405180910390fd5b826114918161098b565b151561152b576040517f08c379a00000000000000000000000000000000000000000000000000000000081526004018080602001828103825260268152602001807f566f746572206e6f742066726f6d2072656769737465726564206169726c696e81526020017f6520283c3429000000000000000000000000000000000000000000000000000081525060400191505060405180910390fd5b600260008673ffffffffffffffffffffffffffffffffffffffff1673ffffffffffffffffffffffffffffffffffffffff16815260200190815260200160002060000160149054906101000a900460ff161515156115f0576040517f08c379a000000000000000000000000000000000000000000000000000000000815260040180806020018281038252601e8152602001807f4169726c696e6520697320616c726561647920726567697374657265642e000081525060200191505060405180910390fd5b60046001541015611766576080604051908101604052808673ffffffffffffffffffffffffffffffffffffffff16815260200160011515815260200160001515815260200160006040519080825280602002602001820160405280156116655781602001602082028038833980820191505090505b50815250600260008773ffffffffffffffffffffffffffffffffffffffff1673ffffffffffffffffffffffffffffffffffffffff16815260200190815260200160002060008201518160000160006101000a81548173ffffffffffffffffffffffffffffffffffffffff021916908373ffffffffffffffffffffffffffffffffffffffff16021790555060208201518160000160146101000a81548160ff02191690831515021790555060408201518160000160156101000a81548160ff021916908315150217905550606082015181600101908051906020019061174b929190612039565b50905050600160008154809291906001019190505550611be4565b600073ffffffffffffffffffffffffffffffffffffffff16600260008773ffffffffffffffffffffffffffffffffffffffff1673ffffffffffffffffffffffffffffffffffffffff16815260200190815260200160002060000160009054906101000a900473ffffffffffffffffffffffffffffffffffffffff1673ffffffffffffffffffffffffffffffffffffffff161415611952576080604051908101604052808673ffffffffffffffffffffffffffffffffffffffff16815260200160001515815260200160001515815260200160006040519080825280602002602001820160405280156118675781602001602082028038833980820191505090505b50815250600260008773ffffffffffffffffffffffffffffffffffffffff1673ffffffffffffffffffffffffffffffffffffffff16815260200190815260200160002060008201518160000160006101000a81548173ffffffffffffffffffffffffffffffffffffffff021916908373ffffffffffffffffffffffffffffffffffffffff16021790555060208201518160000160146101000a81548160ff02191690831515021790555060408201518160000160156101000a81548160ff021916908315150217905550606082015181600101908051906020019061194d929190612039565b509050505b611a22600260008773ffffffffffffffffffffffffffffffffffffffff1673ffffffffffffffffffffffffffffffffffffffff168152602001908152602001600020600101805480602002602001604051908101604052809291908181526020018280548015611a1757602002820191906000526020600020905b8160009054906101000a900473ffffffffffffffffffffffffffffffffffffffff1673ffffffffffffffffffffffffffffffffffffffff16815260200190600101908083116119cd575b505050505085611f3b565b1515611acf57600260008673ffffffffffffffffffffffffffffffffffffffff1673ffffffffffffffffffffffffffffffffffffffff1681526020019081526020016000206001018490806001815401808255809150509060018203906000526020600020016000909192909190916101000a81548173ffffffffffffffffffffffffffffffffffffffff021916908373ffffffffffffffffffffffffffffffffffffffff160217905550505b6002600154811515611add57fe5b049150600260008673ffffffffffffffffffffffffffffffffffffffff1673ffffffffffffffffffffffffffffffffffffffff16815260200190815260200160002060010180549050925081600260008773ffffffffffffffffffffffffffffffffffffffff1673ffffffffffffffffffffffffffffffffffffffff168152602001908152602001600020600101805490501115611be3576001600081548092919060010191905055506001600260008773ffffffffffffffffffffffffffffffffffffffff1673ffffffffffffffffffffffffffffffffffffffff16815260200190815260200160002060000160146101000a81548160ff0219169083151502179055505b5b505092915050565b60008060149054906101000a900460ff16905090565b678ac7230489e8000081565b6000600260008373ffffffffffffffffffffffffffffffffffffffff1673ffffffffffffffffffffffffffffffffffffffff16815260200190815260200160002060000160159054906101000a900460ff169050919050565b600080611c778787878787611ca4565b90506006600082600019166000191681526020019081526020016000206004015491505095945050505050565b60008585858585604051602001808673ffffffffffffffffffffffffffffffffffffffff1673ffffffffffffffffffffffffffffffffffffffff166c0100000000000000000000000002815260140185805190602001908083835b602083101515611d245780518252602082019150602081019050602083039250611cff565b6001836020036101000a0380198251168184511680821785525050505050509050018481526020018373ffffffffffffffffffffffffffffffffffffffff1673ffffffffffffffffffffffffffffffffffffffff166c01000000000000000000000000028152601401828152602001955050505050506040516020818303038152906040526040518082805190602001908083835b602083101515611dde5780518252602082019150602081019050602083039250611db9565b6001836020036101000a0380198251168184511680821785525050505050509050019150506040518091039020905095945050505050565b6000838383604051602001808473ffffffffffffffffffffffffffffffffffffffff1673ffffffffffffffffffffffffffffffffffffffff166c0100000000000000000000000002815260140183805190602001908083835b602083101515611e945780518252602082019150602081019050602083039250611e6f565b6001836020036101000a03801982511681845116808217855250505050505090500182815260200193505050506040516020818303038152906040526040518082805190602001908083835b602083101515611f055780518252602082019150602081019050602083039250611ee0565b6001836020036101000a038019825116818451168082178552505050505050905001915050604051809103902090509392505050565b600080600090505b8351811015611fad578273ffffffffffffffffffffffffffffffffffffffff168482815181101515611f7157fe5b9060200190602002015173ffffffffffffffffffffffffffffffffffffffff161415611fa05760019150611fb2565b8080600101915050611f43565b600091505b5092915050565b828054600181600116156101000203166002900490600052602060002090601f016020900481019282601f10611ffa57805160ff1916838001178555612028565b82800160010185558215612028579182015b8281111561202757825182559160200191906001019061200c565b5b50905061203591906120c3565b5090565b8280548282559060005260206000209081019282156120b2579160200282015b828111156120b15782518260006101000a81548173ffffffffffffffffffffffffffffffffffffffff021916908373ffffffffffffffffffffffffffffffffffffffff16021790555091602001919060010190612059565b5b5090506120bf91906120e8565b5090565b6120e591905b808211156120e15760008160009055506001016120c9565b5090565b90565b61212891905b8082111561212457600081816101000a81549073ffffffffffffffffffffffffffffffffffffffff0219169055506001016120ee565b5090565b905600a165627a7a7230582047e8f3bb8a306e4e630e60a2a3bc53208b0367afce8cefb0031184312f8193100029",
  "source": "pragma solidity ^0.4.25;\n\nimport \"../node_modules/openzeppelin-solidity/contracts/math/SafeMath.sol\";\n\ncontract FlightSuretyData {\n    using SafeMath for uint256;\n\n    /********************************************************************************************/\n    /*                                       DATA VARIABLES                                     */\n    /********************************************************************************************/\n\n    address private contractOwner;                                      // Account used to deploy contract\n    bool private operational = true;                                    // Blocks all state changes throughout the contract if false\n\n    //address[] private airlines;\n\n    uint256 totalRegisteredAirlines;\n    struct Airline {\n        address airline;\n        bool isRegistered;\n        bool isFunded;\n        address[] voters;\n    }\n    mapping(address => Airline) registeredAirlines; \n\n    uint256 totalRegisteredFlights;\n    struct Flight {\n        bytes32 key;\n        address airline;\n        string flightCode;\n        uint departureTime;\n        bool isRegistered;\n        // uint status;\n        // uint updatedTime;\n    }\n    mapping(bytes32 => Flight) registeredFlights;    \n\n    uint256 totalBoughtInsurance;\n    struct Insurance {\n        bytes32 key;\n        bytes32 flightKey;\n        address insuree;\n        uint256 amount;\n        uint state; // 0 = init, 1 = new\n    }\n    mapping(bytes32 => Insurance) insurances;     \n\n\n    uint256 public constant AIRLINE_REGISTRATION_FEE = 10 ether;\n\n    /********************************************************************************************/\n    /*                                       EVENT DEFINITIONS                                  */\n    /********************************************************************************************/\n\n\n    /**\n    * @dev Constructor\n    *      The deploying account becomes contractOwner\n    */\n    constructor\n                                (\n                                    address initialAirline\n                                ) \n                                public \n    {\n        contractOwner = msg.sender;\n\n\n        registeredAirlines[initialAirline] = Airline({\n                                        airline: initialAirline,\n                                        isRegistered: true,\n                                        isFunded: false,\n                                        voters: new address[](0x00)\n                                });\n        totalRegisteredAirlines = 1;\n        //airlines.push(initialAirline);\n    }\n\n    /********************************************************************************************/\n    /*                                       FUNCTION MODIFIERS                                 */\n    /********************************************************************************************/\n\n    // Modifiers help avoid duplication of code. They are typically used to validate something\n    // before a function is allowed to be executed.\n\n    /**\n    * @dev Modifier that requires the \"operational\" boolean variable to be \"true\"\n    *      This is used on all state changing functions to pause the contract in \n    *      the event there is an issue that needs to be fixed\n    */\n    modifier requireIsOperational() \n    {\n        require(operational, \"Contract is currently not operational\");\n        _;  // All modifiers require an \"_\" which indicates where the function body will be added\n    }\n\n    modifier requireAirlineOperable(address airline) \n    {\n        require(registeredAirlines[airline].isRegistered && registeredAirlines[airline].isFunded, \"airline is not register or fully funded yet\");\n        _;  \n    }\n\n    modifier requireFlightRegistered(address airline, string flightCode, uint256 timestamp) \n    {\n        require(isFlightRegistered(airline, flightCode, timestamp), \"flight is not register yet\");\n        _;  \n    }\n\n    \n\n    /**\n    * @dev Modifier that requires the \"ContractOwner\" account to be the function caller\n    */\n    modifier requireContractOwner()\n    {\n        require(msg.sender == contractOwner, \"Caller is not contract owner\");\n        _;\n    }\n\n\n    modifier requireFromRegisteredAirlines(address voter)\n    {\n        require(isAirlineRegistered(voter), \"Voter not from registered airline (<4)\");\n        _;\n    }\n\n    /********************************************************************************************/\n    /*                                       UTILITY FUNCTIONS                                  */\n    /********************************************************************************************/\n\n    /**\n    * @dev Get operating status of contract\n    *\n    * @return A bool that is the current operating status\n    */      \n    function isOperational() \n                            public \n                            view \n                            returns(bool) \n    {\n        return operational;\n    }\n\n\n    /**\n    * @dev Sets contract operations on/off\n    *\n    * When operational mode is disabled, all write transactions except for this one will fail\n    */    \n    function setOperatingStatus\n                            (\n                                bool mode\n                            ) \n                            external\n                            requireContractOwner \n    {\n        operational = mode;\n    }\n\n    /********************************************************************************************/\n    /*                                     SMART CONTRACT FUNCTIONS                             */\n    /********************************************************************************************/\n\n    function registerFlight\n                            (\n                                address airline, \n                                string flightCode,\n                                uint256 timestamp\n\n                            )\n                            external\n                            requireIsOperational\n                            requireAirlineOperable(airline)\n                            returns(bool success)\n    {\n        var key = getFlightKey(airline, flightCode, timestamp);\n\n\n        registeredFlights[key] = Flight({\n                                        key: key,\n                                        airline: airline,\n                                        flightCode: flightCode,\n                                        departureTime: timestamp,\n                                        isRegistered: true\n                                });\n        totalRegisteredFlights += 1;\n        success = true;\n\n    }\n\n   /**\n    * @dev Add an airline to the registration queue\n    *      Can only be called from FlightSuretyApp contract\n    *\n    */   \n    function registerAirline\n                            (\n                            address airline,\n                            address voter\n                            )\n                            external\n                            requireIsOperational\n                            requireFromRegisteredAirlines(voter)\n                            returns(uint256 votes)\n\n    {\n\n        require(!registeredAirlines[airline].isRegistered, \"Airline is already registered.\");\n\n        if(totalRegisteredAirlines < 4)\n        {\n            registeredAirlines[airline] = Airline({\n                                            airline: airline,\n                                            isRegistered: true,\n                                            isFunded: false,\n                                            voters: new address[](0x00)\n                                    });\n            totalRegisteredAirlines ++;\n        }\n        else\n        {\n            if (registeredAirlines[airline].airline == address(0x0))\n            {\n                registeredAirlines[airline] = Airline({\n                                                airline: airline,\n                                                isRegistered: false,\n                                                isFunded: false,\n                                                voters: new address[](0x00)\n                                        });\n            }\n            if(!isExistInArray(registeredAirlines[airline].voters, voter))\n            {\n                registeredAirlines[airline].voters.push(voter);\n            }\n            uint treshold = totalRegisteredAirlines / 2;\n            votes = registeredAirlines[airline].voters.length;\n            if(registeredAirlines[airline].voters.length > treshold)\n            {\n                totalRegisteredAirlines ++;\n                registeredAirlines[airline].isRegistered = true;\n            }\n\n        }\n    }\n\n\n   /**\n    * @dev Buy insurance for a flight\n    *\n    */   \n    function buy\n                            (   \n                            address airline,\n                            string flightCode,\n                            uint256 timestamp,\n                            address insuree                          \n                            )\n                            external\n                            payable\n                            requireIsOperational\n                            requireAirlineOperable(airline)\n                            requireFlightRegistered(airline, flightCode, timestamp)\n                            returns(bool success)\n    {\n\n        var flightKey = getFlightKey(airline, flightCode, timestamp);\n        var insKey = getInsuranceKey(airline, flightCode, timestamp, insuree, msg.value);\n\n\n\n        insurances[insKey] = Insurance({\n                                        key: insKey,\n                                        flightKey: flightKey,\n                                        insuree: insuree,\n                                        amount: msg.value,\n                                        state: 1\n                                });\n        totalBoughtInsurance += 1;\n        success = true;\n    }\n\n    /**\n     *  @dev Credits payouts to insurees\n    */\n    function creditInsurees\n                                (\n                                )\n                                external\n                                pure\n    {\n    }\n    \n\n    /**\n     *  @dev Transfers eligible payout funds to insuree\n     *\n    */\n    function pay\n                            (\n                            )\n                            external\n                            pure\n    {\n    }\n\n   /**\n    * @dev Initial funding for the insurance. Unless there are too many delayed flights\n    *      resulting in insurance payouts, the contract should be self-sustaining\n    *\n    */   \n    function fund\n                            (  \n                            address airline \n                            )\n                            public\n                            payable\n                            requireIsOperational\n                            requireFromRegisteredAirlines(airline)\n    {\n\n        require(msg.value >= AIRLINE_REGISTRATION_FEE, \"Not sufficient fund\");\n        registeredAirlines[airline].isFunded = true;\n    }\n\n    function getFlightKey\n                        (\n                            address airline,\n                            string memory flight,\n                            uint256 timestamp\n                        )\n                        pure\n                        internal\n                        returns(bytes32) \n    {\n        return keccak256(abi.encodePacked(airline, flight, timestamp));\n    }\n\n    function getInsuranceKey\n                        (\n                            address airline,\n                            string memory flight,\n                            uint256 timestamp,\n                            address insuree,\n                            uint256 amount\n                        )\n                        pure\n                        internal\n                        returns(bytes32) \n    {\n        return keccak256(abi.encodePacked(airline, flight, timestamp, insuree,amount));\n    }\n\n\n    /**\n    * @dev Fallback function for funding smart contract.\n    *\n    */\n    function() \n                            external \n                            payable \n    {\n        fund(msg.sender);\n    }\n\n\n\n    /**\n    * helpers\n    *\n    */\n\n    function isFlightRegistered(address airline, string flightCode, uint256 timestamp) public view returns (bool result) {\n        var key = getFlightKey(airline, flightCode, timestamp);\n        return registeredFlights[key].isRegistered;\n    }\n\n\n    function isAirlineRegistered(address airline) public view returns (bool result) {\n        return registeredAirlines[airline].isRegistered;\n    }\n\n    function isAirlineFunded(address airline) public view returns (bool result) {\n        return registeredAirlines[airline].isFunded;\n    }\n\n    function isExistInArray(address[] targetArray, address searchElement) private view returns (bool result) {\n        for(uint256 i=0; i< targetArray.length; i++)\n        {\n            if (targetArray[i] == searchElement)\n            {\n                return true;\n            }\n        }\n        return false;\n    }\n\n    function getTotalRegisteredAirlines() public view returns (uint256 result) {\n        result = totalRegisteredAirlines;\n    }\n\n    function getTotalRegisteredFlights() public view returns (uint256 result) {\n        result = totalRegisteredFlights;\n    }\n\n    function getVoters(address airline) public view returns (address[] result) {\n        result = registeredAirlines[airline].voters;\n    }\n\n    function getInsuranceState ( address airline, string memory flight, uint256 timestamp, address insuree, uint256 amount ) public view returns (uint)\n    {\n        var key = getInsuranceKey(airline, flight, timestamp, insuree, amount);\n\n        return insurances[key].state;\n    }\n\n    function getInsuranceAmount ( address airline, string memory flight, uint256 timestamp, address insuree, uint256 amount ) public view returns (uint)\n    {\n        var key = getInsuranceKey(airline, flight, timestamp, insuree, amount);\n\n        return insurances[key].amount;\n    }\n\n\n\n}\n\n",
  "sourcePath": "/Users/pongsaks/Udacity/Blockchain/Nanodegree_BlockchainDev/projects/p4_flightsurety/contracts/FlightSuretyData.sol",
  "compiler": {
    "name": "solc",
    "version": "0.4.26+commit.4563c3fc.Emscripten.clang"
  },
  "schemaVersion": "3.0.3",
  "updatedAt": "2021-09-03T16:32:19.599Z",
  "devdoc": {
    "methods": {
      "buy(address,string,uint256,address)": {
        "details": "Buy insurance for a flight    "
      },
      "creditInsurees()": {
        "details": "Credits payouts to insurees"
      },
      "fund(address)": {
        "details": "Initial funding for the insurance. Unless there are too many delayed flights     resulting in insurance payouts, the contract should be self-sustaining    "
      },
      "isOperational()": {
        "details": "Get operating status of contract",
        "return": "A bool that is the current operating status"
      },
      "pay()": {
        "details": "Transfers eligible payout funds to insuree    "
      },
      "registerAirline(address,address)": {
        "details": "Add an airline to the registration queue     Can only be called from FlightSuretyApp contract    "
      },
      "setOperatingStatus(bool)": {
        "details": "Sets contract operations on/off    * When operational mode is disabled, all write transactions except for this one will fail"
      }
    }
  },
  "userdoc": {
    "methods": {
      "isFlightRegistered(address,string,uint256)": {
        "notice": "helpers    "
      },
      "registerFlight(address,string,uint256)": {
        "notice": "*****************************************************************************************"
      }
    }
  }
}